{"abi":[{"inputs":[{"internalType":"string","name":"name","type":"string"},{"internalType":"string","name":"desc","type":"string"},{"internalType":"uint256","name":"min","type":"uint256"},{"internalType":"address","name":"creator","type":"address"}],"stateMutability":"nonpayable","type":"constructor"},{"inputs":[{"internalType":"uint256","name":"requestIndex","type":"uint256"}],"name":"approveRequest","outputs":[],"stateMutability":"nonpayable","type":"function"},{"inputs":[{"internalType":"address","name":"","type":"address"}],"name":"approvers","outputs":[{"internalType":"bool","name":"","type":"bool"}],"stateMutability":"view","type":"function"},{"inputs":[],"name":"contribute","outputs":[],"stateMutability":"payable","type":"function"},{"inputs":[{"internalType":"string","name":"req_desc","type":"string"},{"internalType":"uint256","name":"cost","type":"uint256"},{"internalType":"address","name":"recipient","type":"address"}],"name":"createRequest","outputs":[],"stateMutability":"nonpayable","type":"function"},{"inputs":[],"name":"description","outputs":[{"internalType":"string","name":"","type":"string"}],"stateMutability":"view","type":"function"},{"inputs":[{"internalType":"uint256","name":"reqIndex","type":"uint256"}],"name":"finalizeRequest","outputs":[],"stateMutability":"payable","type":"function"},{"inputs":[],"name":"getCamapaignData","outputs":[{"internalType":"string","name":"","type":"string"},{"internalType":"string","name":"","type":"string"},{"internalType":"address","name":"","type":"address"},{"internalType":"uint256","name":"","type":"uint256"},{"internalType":"uint256","name":"","type":"uint256"},{"internalType":"uint256","name":"","type":"uint256"},{"internalType":"uint256","name":"","type":"uint256"}],"stateMutability":"view","type":"function"},{"inputs":[],"name":"getRequestLength","outputs":[{"internalType":"uint256","name":"","type":"uint256"}],"stateMutability":"view","type":"function"},{"inputs":[],"name":"manager","outputs":[{"internalType":"address","name":"","type":"address"}],"stateMutability":"view","type":"function"},{"inputs":[],"name":"minimumContribution","outputs":[{"internalType":"uint256","name":"","type":"uint256"}],"stateMutability":"view","type":"function"},{"inputs":[],"name":"numApprovers","outputs":[{"internalType":"uint256","name":"","type":"uint256"}],"stateMutability":"view","type":"function"},{"inputs":[],"name":"numRequest","outputs":[{"internalType":"uint256","name":"","type":"uint256"}],"stateMutability":"view","type":"function"},{"inputs":[{"internalType":"uint256","name":"","type":"uint256"}],"name":"requests","outputs":[{"internalType":"string","name":"description","type":"string"},{"internalType":"uint256","name":"value","type":"uint256"},{"internalType":"address","name":"recipient","type":"address"},{"internalType":"bool","name":"complete","type":"bool"},{"internalType":"uint256","name":"approvalCount","type":"uint256"}],"stateMutability":"view","type":"function"},{"inputs":[],"name":"title","outputs":[{"internalType":"string","name":"","type":"string"}],"stateMutability":"view","type":"function"}],"devdoc":{"kind":"dev","methods":{},"version":1},"evm":{"assembly":"    /* \"contract\":716:3596  contract Campaign {\r... */\n  mstore(0x40, 0x80)\n    /* \"contract\":1234:1485  constructor(string memory name,string memory desc,uint min,address creator){\r... */\n  callvalue\n  dup1\n  iszero\n  tag_1\n  jumpi\n  0x00\n  dup1\n  revert\ntag_1:\n  pop\n  mload(0x40)\n  sub(codesize, bytecodeSize)\n  dup1\n  bytecodeSize\n  dup4\n  codecopy\n  dup2\n  dup2\n  add\n  0x40\n  mstore\n  dup2\n  add\n  swap1\n  tag_2\n  swap2\n  swap1\n  tag_3\n  jump\t// in\ntag_2:\n    /* \"contract\":1328:1332  name */\n  dup4\n    /* \"contract\":1320:1325  title */\n  0x02\n    /* \"contract\":1320:1332  title = name */\n  swap1\n  dup1\n  mload\n  swap1\n  0x20\n  add\n  swap1\n  tag_6\n  swap3\n  swap2\n  swap1\n  tag_7\n  jump\t// in\ntag_6:\n  pop\n    /* \"contract\":1357:1361  desc */\n  dup3\n    /* \"contract\":1343:1354  description */\n  0x03\n    /* \"contract\":1343:1361  description = desc */\n  swap1\n  dup1\n  mload\n  swap1\n  0x20\n  add\n  swap1\n  tag_8\n  swap3\n  swap2\n  swap1\n  tag_7\n  jump\t// in\ntag_8:\n  pop\n    /* \"contract\":1382:1389  creator */\n  dup1\n    /* \"contract\":1372:1379  manager */\n  0x00\n  dup1\n    /* \"contract\":1372:1389  manager = creator */\n  0x0100\n  exp\n  dup2\n  sload\n  dup2\n  0xffffffffffffffffffffffffffffffffffffffff\n  mul\n  not\n  and\n  swap1\n  dup4\n  0xffffffffffffffffffffffffffffffffffffffff\n  and\n  mul\n  or\n  swap1\n  sstore\n  pop\n    /* \"contract\":1422:1425  min */\n  dup2\n    /* \"contract\":1400:1419  minimumContribution */\n  0x01\n    /* \"contract\":1400:1425  minimumContribution = min */\n  dup2\n  swap1\n  sstore\n  pop\n    /* \"contract\":1449:1450  0 */\n  0x00\n    /* \"contract\":1436:1446  numRequest */\n  0x07\n    /* \"contract\":1436:1450  numRequest = 0 */\n  dup2\n  swap1\n  sstore\n  pop\n    /* \"contract\":1476:1477  0 */\n  0x00\n    /* \"contract\":1461:1473  numApprovers */\n  0x05\n    /* \"contract\":1461:1477  numApprovers = 0 */\n  dup2\n  swap1\n  sstore\n  pop\n    /* \"contract\":1234:1485  constructor(string memory name,string memory desc,uint min,address creator){\r... */\n  pop\n  pop\n  pop\n  pop\n    /* \"contract\":716:3596  contract Campaign {\r... */\n  jump(tag_9)\ntag_7:\n  dup3\n  dup1\n  sload\n  tag_10\n  swap1\n  tag_11\n  jump\t// in\ntag_10:\n  swap1\n  0x00\n  mstore\n  keccak256(0x00, 0x20)\n  swap1\n  0x1f\n  add\n  0x20\n  swap1\n  div\n  dup2\n  add\n  swap3\n  dup3\n  tag_13\n  jumpi\n  0x00\n  dup6\n  sstore\n  jump(tag_12)\ntag_13:\n  dup3\n  0x1f\n  lt\n  tag_14\n  jumpi\n  dup1\n  mload\n  not(0xff)\n  and\n  dup4\n  dup1\n  add\n  or\n  dup6\n  sstore\n  jump(tag_12)\ntag_14:\n  dup3\n  dup1\n  add\n  0x01\n  add\n  dup6\n  sstore\n  dup3\n  iszero\n  tag_12\n  jumpi\n  swap2\n  dup3\n  add\ntag_15:\n  dup3\n  dup2\n  gt\n  iszero\n  tag_16\n  jumpi\n  dup3\n  mload\n  dup3\n  sstore\n  swap2\n  0x20\n  add\n  swap2\n  swap1\n  0x01\n  add\n  swap1\n  jump(tag_15)\ntag_16:\ntag_12:\n  pop\n  swap1\n  pop\n  tag_17\n  swap2\n  swap1\n  tag_18\n  jump\t// in\ntag_17:\n  pop\n  swap1\n  jump\t// out\ntag_18:\ntag_19:\n  dup1\n  dup3\n  gt\n  iszero\n  tag_20\n  jumpi\n  0x00\n  dup2\n  0x00\n  swap1\n  sstore\n  pop\n  0x01\n  add\n  jump(tag_19)\ntag_20:\n  pop\n  swap1\n  jump\t// out\n    /* \"#utility.yul\":7:361   */\ntag_22:\n    /* \"#utility.yul\":96:101   */\n  0x00\n    /* \"#utility.yul\":121:187   */\n  tag_24\n    /* \"#utility.yul\":137:186   */\n  tag_25\n    /* \"#utility.yul\":179:185   */\n  dup5\n    /* \"#utility.yul\":137:186   */\n  tag_26\n  jump\t// in\ntag_25:\n    /* \"#utility.yul\":121:187   */\n  tag_27\n  jump\t// in\ntag_24:\n    /* \"#utility.yul\":112:187   */\n  swap1\n  pop\n    /* \"#utility.yul\":210:216   */\n  dup3\n    /* \"#utility.yul\":203:208   */\n  dup2\n    /* \"#utility.yul\":196:217   */\n  mstore\n    /* \"#utility.yul\":248:252   */\n  0x20\n    /* \"#utility.yul\":241:246   */\n  dup2\n    /* \"#utility.yul\":237:253   */\n  add\n    /* \"#utility.yul\":286:289   */\n  dup5\n    /* \"#utility.yul\":277:283   */\n  dup5\n    /* \"#utility.yul\":272:275   */\n  dup5\n    /* \"#utility.yul\":268:284   */\n  add\n    /* \"#utility.yul\":265:290   */\n  gt\n    /* \"#utility.yul\":262:264   */\n  iszero\n  tag_28\n  jumpi\n    /* \"#utility.yul\":303:304   */\n  0x00\n    /* \"#utility.yul\":300:301   */\n  dup1\n    /* \"#utility.yul\":293:305   */\n  revert\n    /* \"#utility.yul\":262:264   */\ntag_28:\n    /* \"#utility.yul\":316:355   */\n  tag_29\n    /* \"#utility.yul\":348:354   */\n  dup5\n    /* \"#utility.yul\":343:346   */\n  dup3\n    /* \"#utility.yul\":338:341   */\n  dup6\n    /* \"#utility.yul\":316:355   */\n  tag_30\n  jump\t// in\ntag_29:\n    /* \"#utility.yul\":102:361   */\n  pop\n  swap4\n  swap3\n  pop\n  pop\n  pop\n  jump\t// out\n    /* \"#utility.yul\":367:510   */\ntag_31:\n    /* \"#utility.yul\":424:429   */\n  0x00\n    /* \"#utility.yul\":455:461   */\n  dup2\n    /* \"#utility.yul\":449:462   */\n  mload\n    /* \"#utility.yul\":440:462   */\n  swap1\n  pop\n    /* \"#utility.yul\":471:504   */\n  tag_33\n    /* \"#utility.yul\":498:503   */\n  dup2\n    /* \"#utility.yul\":471:504   */\n  tag_34\n  jump\t// in\ntag_33:\n    /* \"#utility.yul\":430:510   */\n  swap3\n  swap2\n  pop\n  pop\n  jump\t// out\n    /* \"#utility.yul\":530:818   */\ntag_35:\n    /* \"#utility.yul\":597:602   */\n  0x00\n    /* \"#utility.yul\":646:649   */\n  dup3\n    /* \"#utility.yul\":639:643   */\n  0x1f\n    /* \"#utility.yul\":631:637   */\n  dup4\n    /* \"#utility.yul\":627:644   */\n  add\n    /* \"#utility.yul\":623:650   */\n  slt\n    /* \"#utility.yul\":613:615   */\n  tag_37\n  jumpi\n    /* \"#utility.yul\":664:665   */\n  0x00\n    /* \"#utility.yul\":661:662   */\n  dup1\n    /* \"#utility.yul\":654:666   */\n  revert\n    /* \"#utility.yul\":613:615   */\ntag_37:\n    /* \"#utility.yul\":697:703   */\n  dup2\n    /* \"#utility.yul\":691:704   */\n  mload\n    /* \"#utility.yul\":722:812   */\n  tag_38\n    /* \"#utility.yul\":808:811   */\n  dup5\n    /* \"#utility.yul\":800:806   */\n  dup3\n    /* \"#utility.yul\":793:797   */\n  0x20\n    /* \"#utility.yul\":785:791   */\n  dup7\n    /* \"#utility.yul\":781:798   */\n  add\n    /* \"#utility.yul\":722:812   */\n  tag_22\n  jump\t// in\ntag_38:\n    /* \"#utility.yul\":713:812   */\n  swap2\n  pop\n    /* \"#utility.yul\":603:818   */\n  pop\n  swap3\n  swap2\n  pop\n  pop\n  jump\t// out\n    /* \"#utility.yul\":824:967   */\ntag_39:\n    /* \"#utility.yul\":881:886   */\n  0x00\n    /* \"#utility.yul\":912:918   */\n  dup2\n    /* \"#utility.yul\":906:919   */\n  mload\n    /* \"#utility.yul\":897:919   */\n  swap1\n  pop\n    /* \"#utility.yul\":928:961   */\n  tag_41\n    /* \"#utility.yul\":955:960   */\n  dup2\n    /* \"#utility.yul\":928:961   */\n  tag_42\n  jump\t// in\ntag_41:\n    /* \"#utility.yul\":887:967   */\n  swap3\n  swap2\n  pop\n  pop\n  jump\t// out\n    /* \"#utility.yul\":973:1938   */\ntag_3:\n    /* \"#utility.yul\":1090:1096   */\n  0x00\n    /* \"#utility.yul\":1098:1104   */\n  dup1\n    /* \"#utility.yul\":1106:1112   */\n  0x00\n    /* \"#utility.yul\":1114:1120   */\n  dup1\n    /* \"#utility.yul\":1163:1166   */\n  0x80\n    /* \"#utility.yul\":1151:1160   */\n  dup6\n    /* \"#utility.yul\":1142:1149   */\n  dup8\n    /* \"#utility.yul\":1138:1161   */\n  sub\n    /* \"#utility.yul\":1134:1167   */\n  slt\n    /* \"#utility.yul\":1131:1133   */\n  iszero\n  tag_44\n  jumpi\n    /* \"#utility.yul\":1180:1181   */\n  0x00\n    /* \"#utility.yul\":1177:1178   */\n  dup1\n    /* \"#utility.yul\":1170:1182   */\n  revert\n    /* \"#utility.yul\":1131:1133   */\ntag_44:\n    /* \"#utility.yul\":1244:1245   */\n  0x00\n    /* \"#utility.yul\":1233:1242   */\n  dup6\n    /* \"#utility.yul\":1229:1246   */\n  add\n    /* \"#utility.yul\":1223:1247   */\n  mload\n    /* \"#utility.yul\":1274:1292   */\n  0xffffffffffffffff\n    /* \"#utility.yul\":1266:1272   */\n  dup2\n    /* \"#utility.yul\":1263:1293   */\n  gt\n    /* \"#utility.yul\":1260:1262   */\n  iszero\n  tag_45\n  jumpi\n    /* \"#utility.yul\":1306:1307   */\n  0x00\n    /* \"#utility.yul\":1303:1304   */\n  dup1\n    /* \"#utility.yul\":1296:1308   */\n  revert\n    /* \"#utility.yul\":1260:1262   */\ntag_45:\n    /* \"#utility.yul\":1334:1408   */\n  tag_46\n    /* \"#utility.yul\":1400:1407   */\n  dup8\n    /* \"#utility.yul\":1391:1397   */\n  dup3\n    /* \"#utility.yul\":1380:1389   */\n  dup9\n    /* \"#utility.yul\":1376:1398   */\n  add\n    /* \"#utility.yul\":1334:1408   */\n  tag_35\n  jump\t// in\ntag_46:\n    /* \"#utility.yul\":1324:1408   */\n  swap5\n  pop\n    /* \"#utility.yul\":1194:1418   */\n  pop\n    /* \"#utility.yul\":1478:1480   */\n  0x20\n    /* \"#utility.yul\":1467:1476   */\n  dup6\n    /* \"#utility.yul\":1463:1481   */\n  add\n    /* \"#utility.yul\":1457:1482   */\n  mload\n    /* \"#utility.yul\":1509:1527   */\n  0xffffffffffffffff\n    /* \"#utility.yul\":1501:1507   */\n  dup2\n    /* \"#utility.yul\":1498:1528   */\n  gt\n    /* \"#utility.yul\":1495:1497   */\n  iszero\n  tag_47\n  jumpi\n    /* \"#utility.yul\":1541:1542   */\n  0x00\n    /* \"#utility.yul\":1538:1539   */\n  dup1\n    /* \"#utility.yul\":1531:1543   */\n  revert\n    /* \"#utility.yul\":1495:1497   */\ntag_47:\n    /* \"#utility.yul\":1569:1643   */\n  tag_48\n    /* \"#utility.yul\":1635:1642   */\n  dup8\n    /* \"#utility.yul\":1626:1632   */\n  dup3\n    /* \"#utility.yul\":1615:1624   */\n  dup9\n    /* \"#utility.yul\":1611:1633   */\n  add\n    /* \"#utility.yul\":1569:1643   */\n  tag_35\n  jump\t// in\ntag_48:\n    /* \"#utility.yul\":1559:1643   */\n  swap4\n  pop\n    /* \"#utility.yul\":1428:1653   */\n  pop\n    /* \"#utility.yul\":1692:1694   */\n  0x40\n    /* \"#utility.yul\":1718:1782   */\n  tag_49\n    /* \"#utility.yul\":1774:1781   */\n  dup8\n    /* \"#utility.yul\":1765:1771   */\n  dup3\n    /* \"#utility.yul\":1754:1763   */\n  dup9\n    /* \"#utility.yul\":1750:1772   */\n  add\n    /* \"#utility.yul\":1718:1782   */\n  tag_39\n  jump\t// in\ntag_49:\n    /* \"#utility.yul\":1708:1782   */\n  swap3\n  pop\n    /* \"#utility.yul\":1663:1792   */\n  pop\n    /* \"#utility.yul\":1831:1833   */\n  0x60\n    /* \"#utility.yul\":1857:1921   */\n  tag_50\n    /* \"#utility.yul\":1913:1920   */\n  dup8\n    /* \"#utility.yul\":1904:1910   */\n  dup3\n    /* \"#utility.yul\":1893:1902   */\n  dup9\n    /* \"#utility.yul\":1889:1911   */\n  add\n    /* \"#utility.yul\":1857:1921   */\n  tag_31\n  jump\t// in\ntag_50:\n    /* \"#utility.yul\":1847:1921   */\n  swap2\n  pop\n    /* \"#utility.yul\":1802:1931   */\n  pop\n    /* \"#utility.yul\":1121:1938   */\n  swap3\n  swap6\n  swap2\n  swap5\n  pop\n  swap3\n  pop\n  jump\t// out\n    /* \"#utility.yul\":1944:2073   */\ntag_27:\n    /* \"#utility.yul\":1978:1984   */\n  0x00\n    /* \"#utility.yul\":2005:2025   */\n  tag_52\n  tag_53\n  jump\t// in\ntag_52:\n    /* \"#utility.yul\":1995:2025   */\n  swap1\n  pop\n    /* \"#utility.yul\":2034:2067   */\n  tag_54\n    /* \"#utility.yul\":2062:2066   */\n  dup3\n    /* \"#utility.yul\":2054:2060   */\n  dup3\n    /* \"#utility.yul\":2034:2067   */\n  tag_55\n  jump\t// in\ntag_54:\n    /* \"#utility.yul\":1985:2073   */\n  swap2\n  swap1\n  pop\n  jump\t// out\n    /* \"#utility.yul\":2079:2154   */\ntag_53:\n    /* \"#utility.yul\":2112:2118   */\n  0x00\n    /* \"#utility.yul\":2145:2147   */\n  0x40\n    /* \"#utility.yul\":2139:2148   */\n  mload\n    /* \"#utility.yul\":2129:2148   */\n  swap1\n  pop\n    /* \"#utility.yul\":2119:2154   */\n  swap1\n  jump\t// out\n    /* \"#utility.yul\":2160:2468   */\ntag_26:\n    /* \"#utility.yul\":2222:2226   */\n  0x00\n    /* \"#utility.yul\":2312:2330   */\n  0xffffffffffffffff\n    /* \"#utility.yul\":2304:2310   */\n  dup3\n    /* \"#utility.yul\":2301:2331   */\n  gt\n    /* \"#utility.yul\":2298:2300   */\n  iszero\n  tag_58\n  jumpi\n    /* \"#utility.yul\":2334:2352   */\n  tag_59\n  tag_60\n  jump\t// in\ntag_59:\n    /* \"#utility.yul\":2298:2300   */\ntag_58:\n    /* \"#utility.yul\":2372:2401   */\n  tag_61\n    /* \"#utility.yul\":2394:2400   */\n  dup3\n    /* \"#utility.yul\":2372:2401   */\n  tag_62\n  jump\t// in\ntag_61:\n    /* \"#utility.yul\":2364:2401   */\n  swap1\n  pop\n    /* \"#utility.yul\":2456:2460   */\n  0x20\n    /* \"#utility.yul\":2450:2454   */\n  dup2\n    /* \"#utility.yul\":2446:2461   */\n  add\n    /* \"#utility.yul\":2438:2461   */\n  swap1\n  pop\n    /* \"#utility.yul\":2227:2468   */\n  swap2\n  swap1\n  pop\n  jump\t// out\n    /* \"#utility.yul\":2474:2570   */\ntag_63:\n    /* \"#utility.yul\":2511:2518   */\n  0x00\n    /* \"#utility.yul\":2540:2564   */\n  tag_65\n    /* \"#utility.yul\":2558:2563   */\n  dup3\n    /* \"#utility.yul\":2540:2564   */\n  tag_66\n  jump\t// in\ntag_65:\n    /* \"#utility.yul\":2529:2564   */\n  swap1\n  pop\n    /* \"#utility.yul\":2519:2570   */\n  swap2\n  swap1\n  pop\n  jump\t// out\n    /* \"#utility.yul\":2576:2702   */\ntag_66:\n    /* \"#utility.yul\":2613:2620   */\n  0x00\n    /* \"#utility.yul\":2653:2695   */\n  0xffffffffffffffffffffffffffffffffffffffff\n    /* \"#utility.yul\":2646:2651   */\n  dup3\n    /* \"#utility.yul\":2642:2696   */\n  and\n    /* \"#utility.yul\":2631:2696   */\n  swap1\n  pop\n    /* \"#utility.yul\":2621:2702   */\n  swap2\n  swap1\n  pop\n  jump\t// out\n    /* \"#utility.yul\":2708:2785   */\ntag_68:\n    /* \"#utility.yul\":2745:2752   */\n  0x00\n    /* \"#utility.yul\":2774:2779   */\n  dup2\n    /* \"#utility.yul\":2763:2779   */\n  swap1\n  pop\n    /* \"#utility.yul\":2753:2785   */\n  swap2\n  swap1\n  pop\n  jump\t// out\n    /* \"#utility.yul\":2791:3098   */\ntag_30:\n    /* \"#utility.yul\":2859:2860   */\n  0x00\n    /* \"#utility.yul\":2869:2982   */\ntag_71:\n    /* \"#utility.yul\":2883:2889   */\n  dup4\n    /* \"#utility.yul\":2880:2881   */\n  dup2\n    /* \"#utility.yul\":2877:2890   */\n  lt\n    /* \"#utility.yul\":2869:2982   */\n  iszero\n  tag_73\n  jumpi\n    /* \"#utility.yul\":2968:2969   */\n  dup1\n    /* \"#utility.yul\":2963:2966   */\n  dup3\n    /* \"#utility.yul\":2959:2970   */\n  add\n    /* \"#utility.yul\":2953:2971   */\n  mload\n    /* \"#utility.yul\":2949:2950   */\n  dup2\n    /* \"#utility.yul\":2944:2947   */\n  dup5\n    /* \"#utility.yul\":2940:2951   */\n  add\n    /* \"#utility.yul\":2933:2972   */\n  mstore\n    /* \"#utility.yul\":2905:2907   */\n  0x20\n    /* \"#utility.yul\":2902:2903   */\n  dup2\n    /* \"#utility.yul\":2898:2908   */\n  add\n    /* \"#utility.yul\":2893:2908   */\n  swap1\n  pop\n    /* \"#utility.yul\":2869:2982   */\n  jump(tag_71)\ntag_73:\n    /* \"#utility.yul\":3000:3006   */\n  dup4\n    /* \"#utility.yul\":2997:2998   */\n  dup2\n    /* \"#utility.yul\":2994:3007   */\n  gt\n    /* \"#utility.yul\":2991:2993   */\n  iszero\n  tag_74\n  jumpi\n    /* \"#utility.yul\":3080:3081   */\n  0x00\n    /* \"#utility.yul\":3071:3077   */\n  dup5\n    /* \"#utility.yul\":3066:3069   */\n  dup5\n    /* \"#utility.yul\":3062:3078   */\n  add\n    /* \"#utility.yul\":3055:3082   */\n  mstore\n    /* \"#utility.yul\":2991:2993   */\ntag_74:\n    /* \"#utility.yul\":2840:3098   */\n  pop\n  pop\n  pop\n  pop\n  jump\t// out\n    /* \"#utility.yul\":3104:3424   */\ntag_11:\n    /* \"#utility.yul\":3148:3154   */\n  0x00\n    /* \"#utility.yul\":3185:3186   */\n  0x02\n    /* \"#utility.yul\":3179:3183   */\n  dup3\n    /* \"#utility.yul\":3175:3187   */\n  div\n    /* \"#utility.yul\":3165:3187   */\n  swap1\n  pop\n    /* \"#utility.yul\":3232:3233   */\n  0x01\n    /* \"#utility.yul\":3226:3230   */\n  dup3\n    /* \"#utility.yul\":3222:3234   */\n  and\n    /* \"#utility.yul\":3253:3271   */\n  dup1\n    /* \"#utility.yul\":3243:3245   */\n  tag_76\n  jumpi\n    /* \"#utility.yul\":3309:3313   */\n  0x7f\n    /* \"#utility.yul\":3301:3307   */\n  dup3\n    /* \"#utility.yul\":3297:3314   */\n  and\n    /* \"#utility.yul\":3287:3314   */\n  swap2\n  pop\n    /* \"#utility.yul\":3243:3245   */\ntag_76:\n    /* \"#utility.yul\":3371:3373   */\n  0x20\n    /* \"#utility.yul\":3363:3369   */\n  dup3\n    /* \"#utility.yul\":3360:3374   */\n  lt\n    /* \"#utility.yul\":3340:3358   */\n  dup2\n    /* \"#utility.yul\":3337:3375   */\n  eq\n    /* \"#utility.yul\":3334:3336   */\n  iszero\n  tag_77\n  jumpi\n    /* \"#utility.yul\":3390:3408   */\n  tag_78\n  tag_79\n  jump\t// in\ntag_78:\n    /* \"#utility.yul\":3334:3336   */\ntag_77:\n    /* \"#utility.yul\":3155:3424   */\n  pop\n  swap2\n  swap1\n  pop\n  jump\t// out\n    /* \"#utility.yul\":3430:3711   */\ntag_55:\n    /* \"#utility.yul\":3513:3540   */\n  tag_81\n    /* \"#utility.yul\":3535:3539   */\n  dup3\n    /* \"#utility.yul\":3513:3540   */\n  tag_62\n  jump\t// in\ntag_81:\n    /* \"#utility.yul\":3505:3511   */\n  dup2\n    /* \"#utility.yul\":3501:3541   */\n  add\n    /* \"#utility.yul\":3643:3649   */\n  dup2\n    /* \"#utility.yul\":3631:3641   */\n  dup2\n    /* \"#utility.yul\":3628:3650   */\n  lt\n    /* \"#utility.yul\":3607:3625   */\n  0xffffffffffffffff\n    /* \"#utility.yul\":3595:3605   */\n  dup3\n    /* \"#utility.yul\":3592:3626   */\n  gt\n    /* \"#utility.yul\":3589:3651   */\n  or\n    /* \"#utility.yul\":3586:3588   */\n  iszero\n  tag_82\n  jumpi\n    /* \"#utility.yul\":3654:3672   */\n  tag_83\n  tag_60\n  jump\t// in\ntag_83:\n    /* \"#utility.yul\":3586:3588   */\ntag_82:\n    /* \"#utility.yul\":3694:3704   */\n  dup1\n    /* \"#utility.yul\":3690:3692   */\n  0x40\n    /* \"#utility.yul\":3683:3705   */\n  mstore\n    /* \"#utility.yul\":3473:3711   */\n  pop\n  pop\n  pop\n  jump\t// out\n    /* \"#utility.yul\":3717:3897   */\ntag_79:\n    /* \"#utility.yul\":3765:3842   */\n  0x4e487b7100000000000000000000000000000000000000000000000000000000\n    /* \"#utility.yul\":3762:3763   */\n  0x00\n    /* \"#utility.yul\":3755:3843   */\n  mstore\n    /* \"#utility.yul\":3862:3866   */\n  0x22\n    /* \"#utility.yul\":3859:3860   */\n  0x04\n    /* \"#utility.yul\":3852:3867   */\n  mstore\n    /* \"#utility.yul\":3886:3890   */\n  0x24\n    /* \"#utility.yul\":3883:3884   */\n  0x00\n    /* \"#utility.yul\":3876:3891   */\n  revert\n    /* \"#utility.yul\":3903:4083   */\ntag_60:\n    /* \"#utility.yul\":3951:4028   */\n  0x4e487b7100000000000000000000000000000000000000000000000000000000\n    /* \"#utility.yul\":3948:3949   */\n  0x00\n    /* \"#utility.yul\":3941:4029   */\n  mstore\n    /* \"#utility.yul\":4048:4052   */\n  0x41\n    /* \"#utility.yul\":4045:4046   */\n  0x04\n    /* \"#utility.yul\":4038:4053   */\n  mstore\n    /* \"#utility.yul\":4072:4076   */\n  0x24\n    /* \"#utility.yul\":4069:4070   */\n  0x00\n    /* \"#utility.yul\":4062:4077   */\n  revert\n    /* \"#utility.yul\":4089:4191   */\ntag_62:\n    /* \"#utility.yul\":4130:4136   */\n  0x00\n    /* \"#utility.yul\":4181:4183   */\n  0x1f\n    /* \"#utility.yul\":4177:4184   */\n  not\n    /* \"#utility.yul\":4172:4174   */\n  0x1f\n    /* \"#utility.yul\":4165:4170   */\n  dup4\n    /* \"#utility.yul\":4161:4175   */\n  add\n    /* \"#utility.yul\":4157:4185   */\n  and\n    /* \"#utility.yul\":4147:4185   */\n  swap1\n  pop\n    /* \"#utility.yul\":4137:4191   */\n  swap2\n  swap1\n  pop\n  jump\t// out\n    /* \"#utility.yul\":4197:4319   */\ntag_34:\n    /* \"#utility.yul\":4270:4294   */\n  tag_88\n    /* \"#utility.yul\":4288:4293   */\n  dup2\n    /* \"#utility.yul\":4270:4294   */\n  tag_63\n  jump\t// in\ntag_88:\n    /* \"#utility.yul\":4263:4268   */\n  dup2\n    /* \"#utility.yul\":4260:4295   */\n  eq\n    /* \"#utility.yul\":4250:4252   */\n  tag_89\n  jumpi\n    /* \"#utility.yul\":4309:4310   */\n  0x00\n    /* \"#utility.yul\":4306:4307   */\n  dup1\n    /* \"#utility.yul\":4299:4311   */\n  revert\n    /* \"#utility.yul\":4250:4252   */\ntag_89:\n    /* \"#utility.yul\":4240:4319   */\n  pop\n  jump\t// out\n    /* \"#utility.yul\":4325:4447   */\ntag_42:\n    /* \"#utility.yul\":4398:4422   */\n  tag_91\n    /* \"#utility.yul\":4416:4421   */\n  dup2\n    /* \"#utility.yul\":4398:4422   */\n  tag_68\n  jump\t// in\ntag_91:\n    /* \"#utility.yul\":4391:4396   */\n  dup2\n    /* \"#utility.yul\":4388:4423   */\n  eq\n    /* \"#utility.yul\":4378:4380   */\n  tag_92\n  jumpi\n    /* \"#utility.yul\":4437:4438   */\n  0x00\n    /* \"#utility.yul\":4434:4435   */\n  dup1\n    /* \"#utility.yul\":4427:4439   */\n  revert\n    /* \"#utility.yul\":4378:4380   */\ntag_92:\n    /* \"#utility.yul\":4368:4447   */\n  pop\n  jump\t// out\n    /* \"contract\":716:3596  contract Campaign {\r... */\ntag_9:\n  dataSize(sub_0)\n  dup1\n  dataOffset(sub_0)\n  0x00\n  codecopy\n  0x00\n  return\nstop\n\nsub_0: assembly {\n        /* \"contract\":716:3596  contract Campaign {\r... */\n      mstore(0x40, 0x80)\n      jumpi(tag_1, lt(calldatasize, 0x04))\n      shr(0xe0, calldataload(0x00))\n      dup1\n      0x81d12c58\n      gt\n      tag_16\n      jumpi\n      dup1\n      0xab67b501\n      gt\n      tag_17\n      jumpi\n      dup1\n      0xab67b501\n      eq\n      tag_12\n      jumpi\n      dup1\n      0xb1b16431\n      eq\n      tag_13\n      jumpi\n      dup1\n      0xd7bb99ba\n      eq\n      tag_14\n      jumpi\n      dup1\n      0xd7d1bbdb\n      eq\n      tag_15\n      jumpi\n      jump(tag_1)\n    tag_17:\n      dup1\n      0x81d12c58\n      eq\n      tag_9\n      jumpi\n      dup1\n      0x8a9cfd55\n      eq\n      tag_10\n      jumpi\n      dup1\n      0x937e09b1\n      eq\n      tag_11\n      jumpi\n      jump(tag_1)\n    tag_16:\n      dup1\n      0x4a79d50c\n      gt\n      tag_18\n      jumpi\n      dup1\n      0x4a79d50c\n      eq\n      tag_5\n      jumpi\n      dup1\n      0x53bf1de0\n      eq\n      tag_6\n      jumpi\n      dup1\n      0x6345cb08\n      eq\n      tag_7\n      jumpi\n      dup1\n      0x7284e416\n      eq\n      tag_8\n      jumpi\n      jump(tag_1)\n    tag_18:\n      dup1\n      0x03441006\n      eq\n      tag_2\n      jumpi\n      dup1\n      0x0a144391\n      eq\n      tag_3\n      jumpi\n      dup1\n      0x481c6a75\n      eq\n      tag_4\n      jumpi\n    tag_1:\n      0x00\n      dup1\n      revert\n        /* \"contract\":2635:3218  function finalizeRequest(uint reqIndex) public payable isManager{\r... */\n    tag_2:\n      tag_19\n      0x04\n      dup1\n      calldatasize\n      sub\n      dup2\n      add\n      swap1\n      tag_20\n      swap2\n      swap1\n      tag_21\n      jump\t// in\n    tag_20:\n      tag_22\n      jump\t// in\n    tag_19:\n      stop\n        /* \"contract\":1082:1123  mapping(address => bool) public approvers */\n    tag_3:\n      callvalue\n      dup1\n      iszero\n      tag_23\n      jumpi\n      0x00\n      dup1\n      revert\n    tag_23:\n      pop\n      tag_24\n      0x04\n      dup1\n      calldatasize\n      sub\n      dup2\n      add\n      swap1\n      tag_25\n      swap2\n      swap1\n      tag_26\n      jump\t// in\n    tag_25:\n      tag_27\n      jump\t// in\n    tag_24:\n      mload(0x40)\n      tag_28\n      swap2\n      swap1\n      tag_29\n      jump\t// in\n    tag_28:\n      mload(0x40)\n      dup1\n      swap2\n      sub\n      swap1\n      return\n        /* \"contract\":957:979  address public manager */\n    tag_4:\n      callvalue\n      dup1\n      iszero\n      tag_30\n      jumpi\n      0x00\n      dup1\n      revert\n    tag_30:\n      pop\n      tag_31\n      tag_32\n      jump\t// in\n    tag_31:\n      mload(0x40)\n      tag_33\n      swap2\n      swap1\n      tag_34\n      jump\t// in\n    tag_33:\n      mload(0x40)\n      dup1\n      swap2\n      sub\n      swap1\n      return\n        /* \"contract\":1024:1043  string public title */\n    tag_5:\n      callvalue\n      dup1\n      iszero\n      tag_35\n      jumpi\n      0x00\n      dup1\n      revert\n    tag_35:\n      pop\n      tag_36\n      tag_37\n      jump\t// in\n    tag_36:\n      mload(0x40)\n      tag_38\n      swap2\n      swap1\n      tag_39\n      jump\t// in\n    tag_38:\n      mload(0x40)\n      dup1\n      swap2\n      sub\n      swap1\n      return\n        /* \"contract\":3493:3587  function getRequestLength() public view returns(uint){\r... */\n    tag_6:\n      callvalue\n      dup1\n      iszero\n      tag_40\n      jumpi\n      0x00\n      dup1\n      revert\n    tag_40:\n      pop\n      tag_41\n      tag_42\n      jump\t// in\n    tag_41:\n      mload(0x40)\n      tag_43\n      swap2\n      swap1\n      tag_44\n      jump\t// in\n    tag_43:\n      mload(0x40)\n      dup1\n      swap2\n      sub\n      swap1\n      return\n        /* \"contract\":1130:1154  uint public numApprovers */\n    tag_7:\n      callvalue\n      dup1\n      iszero\n      tag_45\n      jumpi\n      0x00\n      dup1\n      revert\n    tag_45:\n      pop\n      tag_46\n      tag_47\n      jump\t// in\n    tag_46:\n      mload(0x40)\n      tag_48\n      swap2\n      swap1\n      tag_44\n      jump\t// in\n    tag_48:\n      mload(0x40)\n      dup1\n      swap2\n      sub\n      swap1\n      return\n        /* \"contract\":1050:1075  string public description */\n    tag_8:\n      callvalue\n      dup1\n      iszero\n      tag_49\n      jumpi\n      0x00\n      dup1\n      revert\n    tag_49:\n      pop\n      tag_50\n      tag_51\n      jump\t// in\n    tag_50:\n      mload(0x40)\n      tag_52\n      swap2\n      swap1\n      tag_39\n      jump\t// in\n    tag_52:\n      mload(0x40)\n      dup1\n      swap2\n      sub\n      swap1\n      return\n        /* \"contract\":1167:1192  Request[] public requests */\n    tag_9:\n      callvalue\n      dup1\n      iszero\n      tag_53\n      jumpi\n      0x00\n      dup1\n      revert\n    tag_53:\n      pop\n      tag_54\n      0x04\n      dup1\n      calldatasize\n      sub\n      dup2\n      add\n      swap1\n      tag_55\n      swap2\n      swap1\n      tag_21\n      jump\t// in\n    tag_55:\n      tag_56\n      jump\t// in\n    tag_54:\n      mload(0x40)\n      tag_57\n      swap6\n      swap5\n      swap4\n      swap3\n      swap2\n      swap1\n      tag_58\n      jump\t// in\n    tag_57:\n      mload(0x40)\n      dup1\n      swap2\n      sub\n      swap1\n      return\n        /* \"contract\":1760:2191  function createRequest(string memory req_desc,uint cost,address recipient) public isManager {\r... */\n    tag_10:\n      callvalue\n      dup1\n      iszero\n      tag_59\n      jumpi\n      0x00\n      dup1\n      revert\n    tag_59:\n      pop\n      tag_60\n      0x04\n      dup1\n      calldatasize\n      sub\n      dup2\n      add\n      swap1\n      tag_61\n      swap2\n      swap1\n      tag_62\n      jump\t// in\n    tag_61:\n      tag_63\n      jump\t// in\n    tag_60:\n      stop\n        /* \"contract\":986:1017  uint public minimumContribution */\n    tag_11:\n      callvalue\n      dup1\n      iszero\n      tag_64\n      jumpi\n      0x00\n      dup1\n      revert\n    tag_64:\n      pop\n      tag_65\n      tag_66\n      jump\t// in\n    tag_65:\n      mload(0x40)\n      tag_67\n      swap2\n      swap1\n      tag_44\n      jump\t// in\n    tag_67:\n      mload(0x40)\n      dup1\n      swap2\n      sub\n      swap1\n      return\n        /* \"contract\":3230:3485  function getCamapaignData() public view returns (string memory,string memory,address,uint,uint,uint,uint){\r... */\n    tag_12:\n      callvalue\n      dup1\n      iszero\n      tag_68\n      jumpi\n      0x00\n      dup1\n      revert\n    tag_68:\n      pop\n      tag_69\n      tag_70\n      jump\t// in\n    tag_69:\n      mload(0x40)\n      tag_71\n      swap8\n      swap7\n      swap6\n      swap5\n      swap4\n      swap3\n      swap2\n      swap1\n      tag_72\n      jump\t// in\n    tag_71:\n      mload(0x40)\n      dup1\n      swap2\n      sub\n      swap1\n      return\n        /* \"contract\":1199:1221  uint public numRequest */\n    tag_13:\n      callvalue\n      dup1\n      iszero\n      tag_73\n      jumpi\n      0x00\n      dup1\n      revert\n    tag_73:\n      pop\n      tag_74\n      tag_75\n      jump\t// in\n    tag_74:\n      mload(0x40)\n      tag_76\n      swap2\n      swap1\n      tag_44\n      jump\t// in\n    tag_76:\n      mload(0x40)\n      dup1\n      swap2\n      sub\n      swap1\n      return\n        /* \"contract\":1589:1748  function contribute() public payable{\r... */\n    tag_14:\n      tag_77\n      tag_78\n      jump\t// in\n    tag_77:\n      stop\n        /* \"contract\":2203:2623  function approveRequest(uint requestIndex) public{\r... */\n    tag_15:\n      callvalue\n      dup1\n      iszero\n      tag_79\n      jumpi\n      0x00\n      dup1\n      revert\n    tag_79:\n      pop\n      tag_80\n      0x04\n      dup1\n      calldatasize\n      sub\n      dup2\n      add\n      swap1\n      tag_81\n      swap2\n      swap1\n      tag_21\n      jump\t// in\n    tag_81:\n      tag_82\n      jump\t// in\n    tag_80:\n      stop\n        /* \"contract\":2635:3218  function finalizeRequest(uint reqIndex) public payable isManager{\r... */\n    tag_22:\n        /* \"contract\":1549:1556  manager */\n      0x00\n      dup1\n      sload\n      swap1\n      0x0100\n      exp\n      swap1\n      div\n      0xffffffffffffffffffffffffffffffffffffffff\n      and\n        /* \"contract\":1535:1556  msg.sender == manager */\n      0xffffffffffffffffffffffffffffffffffffffff\n      and\n        /* \"contract\":1535:1545  msg.sender */\n      caller\n        /* \"contract\":1535:1556  msg.sender == manager */\n      0xffffffffffffffffffffffffffffffffffffffff\n      and\n      eq\n        /* \"contract\":1527:1557  require(msg.sender == manager) */\n      tag_84\n      jumpi\n      0x00\n      dup1\n      revert\n    tag_84:\n        /* \"contract\":2710:2733  Request storage request */\n      0x00\n        /* \"contract\":2736:2744  requests */\n      0x06\n        /* \"contract\":2745:2753  reqIndex */\n      dup3\n        /* \"contract\":2736:2754  requests[reqIndex] */\n      dup2\n      sload\n      dup2\n      lt\n      tag_86\n      jumpi\n      mstore(0x00, 0x4e487b7100000000000000000000000000000000000000000000000000000000)\n      mstore(0x04, 0x32)\n      revert(0x00, 0x24)\n    tag_86:\n      swap1\n      0x00\n      mstore\n      keccak256(0x00, 0x20)\n      swap1\n      0x05\n      mul\n      add\n        /* \"contract\":2710:2754  Request storage request = requests[reqIndex] */\n      swap1\n      pop\n        /* \"contract\":2832:2839  request */\n      dup1\n        /* \"contract\":2832:2848  request.complete */\n      0x02\n      add\n      0x14\n      swap1\n      sload\n      swap1\n      0x0100\n      exp\n      swap1\n      div\n      0xff\n      and\n        /* \"contract\":2831:2848  !request.complete */\n      iszero\n        /* \"contract\":2823:2849  require(!request.complete) */\n      tag_88\n      jumpi\n      0x00\n      dup1\n      revert\n    tag_88:\n        /* \"contract\":2991:2992  2 */\n      0x02\n        /* \"contract\":2978:2990  numApprovers */\n      sload(0x05)\n        /* \"contract\":2978:2992  numApprovers/2 */\n      tag_89\n      swap2\n      swap1\n      tag_90\n      jump\t// in\n    tag_89:\n        /* \"contract\":2952:2959  request */\n      dup2\n        /* \"contract\":2952:2973  request.approvalCount */\n      0x03\n      add\n      sload\n        /* \"contract\":2952:2993  request.approvalCount >= (numApprovers/2) */\n      lt\n      iszero\n        /* \"contract\":2944:2994  require(request.approvalCount >= (numApprovers/2)) */\n      tag_91\n      jumpi\n      0x00\n      dup1\n      revert\n    tag_91:\n        /* \"contract\":3078:3103  address payable recipient */\n      0x00\n        /* \"contract\":3114:3121  request */\n      dup2\n        /* \"contract\":3114:3131  request.recipient */\n      0x02\n      add\n      0x00\n      swap1\n      sload\n      swap1\n      0x0100\n      exp\n      swap1\n      div\n      0xffffffffffffffffffffffffffffffffffffffff\n      and\n        /* \"contract\":3078:3132  address payable recipient = payable(request.recipient) */\n      swap1\n      pop\n        /* \"contract\":3143:3152  recipient */\n      dup1\n        /* \"contract\":3143:3161  recipient.transfer */\n      0xffffffffffffffffffffffffffffffffffffffff\n      and\n        /* \"contract\":3143:3176  recipient.transfer(request.value) */\n      0x08fc\n        /* \"contract\":3162:3169  request */\n      dup4\n        /* \"contract\":3162:3175  request.value */\n      0x01\n      add\n      sload\n        /* \"contract\":3143:3176  recipient.transfer(request.value) */\n      swap1\n      dup2\n      iszero\n      mul\n      swap1\n      mload(0x40)\n      0x00\n      mload(0x40)\n      dup1\n      dup4\n      sub\n      dup2\n      dup6\n      dup9\n      dup9\n      call\n      swap4\n      pop\n      pop\n      pop\n      pop\n      iszero\n      dup1\n      iszero\n      tag_93\n      jumpi\n      returndatasize\n      0x00\n      dup1\n      returndatacopy\n      revert(0x00, returndatasize)\n    tag_93:\n      pop\n        /* \"contract\":3206:3210  true */\n      0x01\n        /* \"contract\":3187:3194  request */\n      dup3\n        /* \"contract\":3187:3203  request.complete */\n      0x02\n      add\n      0x14\n        /* \"contract\":3187:3210  request.complete = true */\n      0x0100\n      exp\n      dup2\n      sload\n      dup2\n      0xff\n      mul\n      not\n      and\n      swap1\n      dup4\n      iszero\n      iszero\n      mul\n      or\n      swap1\n      sstore\n      pop\n        /* \"contract\":1568:1569  _ */\n      pop\n      pop\n        /* \"contract\":2635:3218  function finalizeRequest(uint reqIndex) public payable isManager{\r... */\n      pop\n      jump\t// out\n        /* \"contract\":1082:1123  mapping(address => bool) public approvers */\n    tag_27:\n      mstore(0x20, 0x04)\n      dup1\n      0x00\n      mstore\n      keccak256(0x00, 0x40)\n      0x00\n      swap2\n      pop\n      sload\n      swap1\n      0x0100\n      exp\n      swap1\n      div\n      0xff\n      and\n      dup2\n      jump\t// out\n        /* \"contract\":957:979  address public manager */\n    tag_32:\n      0x00\n      dup1\n      sload\n      swap1\n      0x0100\n      exp\n      swap1\n      div\n      0xffffffffffffffffffffffffffffffffffffffff\n      and\n      dup2\n      jump\t// out\n        /* \"contract\":1024:1043  string public title */\n    tag_37:\n      0x02\n      dup1\n      sload\n      tag_94\n      swap1\n      tag_95\n      jump\t// in\n    tag_94:\n      dup1\n      0x1f\n      add\n      0x20\n      dup1\n      swap2\n      div\n      mul\n      0x20\n      add\n      mload(0x40)\n      swap1\n      dup2\n      add\n      0x40\n      mstore\n      dup1\n      swap3\n      swap2\n      swap1\n      dup2\n      dup2\n      mstore\n      0x20\n      add\n      dup3\n      dup1\n      sload\n      tag_96\n      swap1\n      tag_95\n      jump\t// in\n    tag_96:\n      dup1\n      iszero\n      tag_97\n      jumpi\n      dup1\n      0x1f\n      lt\n      tag_98\n      jumpi\n      0x0100\n      dup1\n      dup4\n      sload\n      div\n      mul\n      dup4\n      mstore\n      swap2\n      0x20\n      add\n      swap2\n      jump(tag_97)\n    tag_98:\n      dup3\n      add\n      swap2\n      swap1\n      0x00\n      mstore\n      keccak256(0x00, 0x20)\n      swap1\n    tag_99:\n      dup2\n      sload\n      dup2\n      mstore\n      swap1\n      0x01\n      add\n      swap1\n      0x20\n      add\n      dup1\n      dup4\n      gt\n      tag_99\n      jumpi\n      dup3\n      swap1\n      sub\n      0x1f\n      and\n      dup3\n      add\n      swap2\n    tag_97:\n      pop\n      pop\n      pop\n      pop\n      pop\n      dup2\n      jump\t// out\n        /* \"contract\":3493:3587  function getRequestLength() public view returns(uint){\r... */\n    tag_42:\n        /* \"contract\":3541:3545  uint */\n      0x00\n        /* \"contract\":3564:3572  requests */\n      0x06\n        /* \"contract\":3564:3579  requests.length */\n      dup1\n      sload\n      swap1\n      pop\n        /* \"contract\":3557:3579  return requests.length */\n      swap1\n      pop\n        /* \"contract\":3493:3587  function getRequestLength() public view returns(uint){\r... */\n      swap1\n      jump\t// out\n        /* \"contract\":1130:1154  uint public numApprovers */\n    tag_47:\n      sload(0x05)\n      dup2\n      jump\t// out\n        /* \"contract\":1050:1075  string public description */\n    tag_51:\n      0x03\n      dup1\n      sload\n      tag_101\n      swap1\n      tag_95\n      jump\t// in\n    tag_101:\n      dup1\n      0x1f\n      add\n      0x20\n      dup1\n      swap2\n      div\n      mul\n      0x20\n      add\n      mload(0x40)\n      swap1\n      dup2\n      add\n      0x40\n      mstore\n      dup1\n      swap3\n      swap2\n      swap1\n      dup2\n      dup2\n      mstore\n      0x20\n      add\n      dup3\n      dup1\n      sload\n      tag_102\n      swap1\n      tag_95\n      jump\t// in\n    tag_102:\n      dup1\n      iszero\n      tag_103\n      jumpi\n      dup1\n      0x1f\n      lt\n      tag_104\n      jumpi\n      0x0100\n      dup1\n      dup4\n      sload\n      div\n      mul\n      dup4\n      mstore\n      swap2\n      0x20\n      add\n      swap2\n      jump(tag_103)\n    tag_104:\n      dup3\n      add\n      swap2\n      swap1\n      0x00\n      mstore\n      keccak256(0x00, 0x20)\n      swap1\n    tag_105:\n      dup2\n      sload\n      dup2\n      mstore\n      swap1\n      0x01\n      add\n      swap1\n      0x20\n      add\n      dup1\n      dup4\n      gt\n      tag_105\n      jumpi\n      dup3\n      swap1\n      sub\n      0x1f\n      and\n      dup3\n      add\n      swap2\n    tag_103:\n      pop\n      pop\n      pop\n      pop\n      pop\n      dup2\n      jump\t// out\n        /* \"contract\":1167:1192  Request[] public requests */\n    tag_56:\n      0x06\n      dup2\n      dup2\n      sload\n      dup2\n      lt\n      tag_106\n      jumpi\n      0x00\n      dup1\n      revert\n    tag_106:\n      swap1\n      0x00\n      mstore\n      keccak256(0x00, 0x20)\n      swap1\n      0x05\n      mul\n      add\n      0x00\n      swap2\n      pop\n      swap1\n      pop\n      dup1\n      0x00\n      add\n      dup1\n      sload\n      tag_108\n      swap1\n      tag_95\n      jump\t// in\n    tag_108:\n      dup1\n      0x1f\n      add\n      0x20\n      dup1\n      swap2\n      div\n      mul\n      0x20\n      add\n      mload(0x40)\n      swap1\n      dup2\n      add\n      0x40\n      mstore\n      dup1\n      swap3\n      swap2\n      swap1\n      dup2\n      dup2\n      mstore\n      0x20\n      add\n      dup3\n      dup1\n      sload\n      tag_109\n      swap1\n      tag_95\n      jump\t// in\n    tag_109:\n      dup1\n      iszero\n      tag_110\n      jumpi\n      dup1\n      0x1f\n      lt\n      tag_111\n      jumpi\n      0x0100\n      dup1\n      dup4\n      sload\n      div\n      mul\n      dup4\n      mstore\n      swap2\n      0x20\n      add\n      swap2\n      jump(tag_110)\n    tag_111:\n      dup3\n      add\n      swap2\n      swap1\n      0x00\n      mstore\n      keccak256(0x00, 0x20)\n      swap1\n    tag_112:\n      dup2\n      sload\n      dup2\n      mstore\n      swap1\n      0x01\n      add\n      swap1\n      0x20\n      add\n      dup1\n      dup4\n      gt\n      tag_112\n      jumpi\n      dup3\n      swap1\n      sub\n      0x1f\n      and\n      dup3\n      add\n      swap2\n    tag_110:\n      pop\n      pop\n      pop\n      pop\n      pop\n      swap1\n      dup1\n      0x01\n      add\n      sload\n      swap1\n      dup1\n      0x02\n      add\n      0x00\n      swap1\n      sload\n      swap1\n      0x0100\n      exp\n      swap1\n      div\n      0xffffffffffffffffffffffffffffffffffffffff\n      and\n      swap1\n      dup1\n      0x02\n      add\n      0x14\n      swap1\n      sload\n      swap1\n      0x0100\n      exp\n      swap1\n      div\n      0xff\n      and\n      swap1\n      dup1\n      0x03\n      add\n      sload\n      swap1\n      pop\n      dup6\n      jump\t// out\n        /* \"contract\":1760:2191  function createRequest(string memory req_desc,uint cost,address recipient) public isManager {\r... */\n    tag_63:\n        /* \"contract\":1549:1556  manager */\n      0x00\n      dup1\n      sload\n      swap1\n      0x0100\n      exp\n      swap1\n      div\n      0xffffffffffffffffffffffffffffffffffffffff\n      and\n        /* \"contract\":1535:1556  msg.sender == manager */\n      0xffffffffffffffffffffffffffffffffffffffff\n      and\n        /* \"contract\":1535:1545  msg.sender */\n      caller\n        /* \"contract\":1535:1556  msg.sender == manager */\n      0xffffffffffffffffffffffffffffffffffffffff\n      and\n      eq\n        /* \"contract\":1527:1557  require(msg.sender == manager) */\n      tag_114\n      jumpi\n      0x00\n      dup1\n      revert\n    tag_114:\n        /* \"contract\":1863:1871  requests */\n      0x06\n        /* \"contract\":1863:1878  requests.push() */\n      0x01\n      dup2\n      0x01\n      dup2\n      sload\n      add\n      dup1\n      dup3\n      sstore\n      dup1\n      swap2\n      pop\n      pop\n      sub\n      swap1\n      0x00\n      mstore\n      keccak256(0x00, 0x20)\n      swap1\n      pop\n      pop\n        /* \"contract\":1889:1915  Request storage newRequest */\n      0x00\n        /* \"contract\":1918:1926  requests */\n      0x06\n        /* \"contract\":1927:1937  numRequest */\n      sload(0x07)\n        /* \"contract\":1918:1938  requests[numRequest] */\n      dup2\n      sload\n      dup2\n      lt\n      tag_117\n      jumpi\n      mstore(0x00, 0x4e487b7100000000000000000000000000000000000000000000000000000000)\n      mstore(0x04, 0x32)\n      revert(0x00, 0x24)\n    tag_117:\n      swap1\n      0x00\n      mstore\n      keccak256(0x00, 0x20)\n      swap1\n      0x05\n      mul\n      add\n        /* \"contract\":1889:1938  Request storage newRequest = requests[numRequest] */\n      swap1\n      pop\n        /* \"contract\":1949:1959  numRequest */\n      0x07\n      0x00\n        /* \"contract\":1949:1961  numRequest++ */\n      dup2\n      sload\n      dup1\n      swap3\n      swap2\n      swap1\n      tag_119\n      swap1\n      tag_120\n      jump\t// in\n    tag_119:\n      swap2\n      swap1\n      pop\n      sstore\n      pop\n        /* \"contract\":2006:2014  req_desc */\n      dup4\n        /* \"contract\":1981:1991  newRequest */\n      dup2\n        /* \"contract\":1981:2003  newRequest.description */\n      0x00\n      add\n        /* \"contract\":1981:2014  newRequest.description = req_desc */\n      swap1\n      dup1\n      mload\n      swap1\n      0x20\n      add\n      swap1\n      tag_121\n      swap3\n      swap2\n      swap1\n      tag_122\n      jump\t// in\n    tag_121:\n      pop\n        /* \"contract\":2044:2048  cost */\n      dup3\n        /* \"contract\":2025:2035  newRequest */\n      dup2\n        /* \"contract\":2025:2041  newRequest.value */\n      0x01\n      add\n        /* \"contract\":2025:2048  newRequest.value = cost */\n      dup2\n      swap1\n      sstore\n      pop\n        /* \"contract\":2082:2091  recipient */\n      dup2\n        /* \"contract\":2059:2069  newRequest */\n      dup2\n        /* \"contract\":2059:2079  newRequest.recipient */\n      0x02\n      add\n      0x00\n        /* \"contract\":2059:2091  newRequest.recipient = recipient */\n      0x0100\n      exp\n      dup2\n      sload\n      dup2\n      0xffffffffffffffffffffffffffffffffffffffff\n      mul\n      not\n      and\n      swap1\n      dup4\n      0xffffffffffffffffffffffffffffffffffffffff\n      and\n      mul\n      or\n      swap1\n      sstore\n      pop\n        /* \"contract\":2124:2129  false */\n      0x00\n        /* \"contract\":2102:2112  newRequest */\n      dup2\n        /* \"contract\":2102:2121  newRequest.complete */\n      0x02\n      add\n      0x14\n        /* \"contract\":2102:2129  newRequest.complete = false */\n      0x0100\n      exp\n      dup2\n      sload\n      dup2\n      0xff\n      mul\n      not\n      and\n      swap1\n      dup4\n      iszero\n      iszero\n      mul\n      or\n      swap1\n      sstore\n      pop\n        /* \"contract\":2167:2168  0 */\n      0x00\n        /* \"contract\":2140:2150  newRequest */\n      dup2\n        /* \"contract\":2140:2164  newRequest.approvalCount */\n      0x03\n      add\n        /* \"contract\":2140:2168  newRequest.approvalCount = 0 */\n      dup2\n      swap1\n      sstore\n      pop\n        /* \"contract\":1568:1569  _ */\n      pop\n        /* \"contract\":1760:2191  function createRequest(string memory req_desc,uint cost,address recipient) public isManager {\r... */\n      pop\n      pop\n      pop\n      jump\t// out\n        /* \"contract\":986:1017  uint public minimumContribution */\n    tag_66:\n      sload(0x01)\n      dup2\n      jump\t// out\n        /* \"contract\":3230:3485  function getCamapaignData() public view returns (string memory,string memory,address,uint,uint,uint,uint){\r... */\n    tag_70:\n        /* \"contract\":3279:3292  string memory */\n      0x60\n        /* \"contract\":3293:3306  string memory */\n      dup1\n        /* \"contract\":3307:3314  address */\n      0x00\n        /* \"contract\":3315:3319  uint */\n      dup1\n        /* \"contract\":3320:3324  uint */\n      0x00\n        /* \"contract\":3325:3329  uint */\n      dup1\n        /* \"contract\":3330:3334  uint */\n      0x00\n        /* \"contract\":3364:3369  title */\n      0x02\n        /* \"contract\":3371:3382  description */\n      0x03\n        /* \"contract\":3384:3391  manager */\n      0x00\n      dup1\n      sload\n      swap1\n      0x0100\n      exp\n      swap1\n      div\n      0xffffffffffffffffffffffffffffffffffffffff\n      and\n        /* \"contract\":3393:3412  minimumContribution */\n      sload(0x01)\n        /* \"contract\":3414:3435  address(this).balance */\n      selfbalance\n        /* \"contract\":3437:3445  requests */\n      0x06\n        /* \"contract\":3437:3452  requests.length */\n      dup1\n      sload\n      swap1\n      pop\n        /* \"contract\":3454:3466  numApprovers */\n      sload(0x05)\n        /* \"contract\":3356:3467  return (title, description, manager, minimumContribution, address(this).balance, requests.length, numApprovers) */\n      dup7\n      dup1\n      sload\n      tag_124\n      swap1\n      tag_95\n      jump\t// in\n    tag_124:\n      dup1\n      0x1f\n      add\n      0x20\n      dup1\n      swap2\n      div\n      mul\n      0x20\n      add\n      mload(0x40)\n      swap1\n      dup2\n      add\n      0x40\n      mstore\n      dup1\n      swap3\n      swap2\n      swap1\n      dup2\n      dup2\n      mstore\n      0x20\n      add\n      dup3\n      dup1\n      sload\n      tag_125\n      swap1\n      tag_95\n      jump\t// in\n    tag_125:\n      dup1\n      iszero\n      tag_126\n      jumpi\n      dup1\n      0x1f\n      lt\n      tag_127\n      jumpi\n      0x0100\n      dup1\n      dup4\n      sload\n      div\n      mul\n      dup4\n      mstore\n      swap2\n      0x20\n      add\n      swap2\n      jump(tag_126)\n    tag_127:\n      dup3\n      add\n      swap2\n      swap1\n      0x00\n      mstore\n      keccak256(0x00, 0x20)\n      swap1\n    tag_128:\n      dup2\n      sload\n      dup2\n      mstore\n      swap1\n      0x01\n      add\n      swap1\n      0x20\n      add\n      dup1\n      dup4\n      gt\n      tag_128\n      jumpi\n      dup3\n      swap1\n      sub\n      0x1f\n      and\n      dup3\n      add\n      swap2\n    tag_126:\n      pop\n      pop\n      pop\n      pop\n      pop\n      swap7\n      pop\n      dup6\n      dup1\n      sload\n      tag_129\n      swap1\n      tag_95\n      jump\t// in\n    tag_129:\n      dup1\n      0x1f\n      add\n      0x20\n      dup1\n      swap2\n      div\n      mul\n      0x20\n      add\n      mload(0x40)\n      swap1\n      dup2\n      add\n      0x40\n      mstore\n      dup1\n      swap3\n      swap2\n      swap1\n      dup2\n      dup2\n      mstore\n      0x20\n      add\n      dup3\n      dup1\n      sload\n      tag_130\n      swap1\n      tag_95\n      jump\t// in\n    tag_130:\n      dup1\n      iszero\n      tag_131\n      jumpi\n      dup1\n      0x1f\n      lt\n      tag_132\n      jumpi\n      0x0100\n      dup1\n      dup4\n      sload\n      div\n      mul\n      dup4\n      mstore\n      swap2\n      0x20\n      add\n      swap2\n      jump(tag_131)\n    tag_132:\n      dup3\n      add\n      swap2\n      swap1\n      0x00\n      mstore\n      keccak256(0x00, 0x20)\n      swap1\n    tag_133:\n      dup2\n      sload\n      dup2\n      mstore\n      swap1\n      0x01\n      add\n      swap1\n      0x20\n      add\n      dup1\n      dup4\n      gt\n      tag_133\n      jumpi\n      dup3\n      swap1\n      sub\n      0x1f\n      and\n      dup3\n      add\n      swap2\n    tag_131:\n      pop\n      pop\n      pop\n      pop\n      pop\n      swap6\n      pop\n      swap7\n      pop\n      swap7\n      pop\n      swap7\n      pop\n      swap7\n      pop\n      swap7\n      pop\n      swap7\n      pop\n      swap7\n      pop\n        /* \"contract\":3230:3485  function getCamapaignData() public view returns (string memory,string memory,address,uint,uint,uint,uint){\r... */\n      swap1\n      swap2\n      swap3\n      swap4\n      swap5\n      swap6\n      swap7\n      jump\t// out\n        /* \"contract\":1199:1221  uint public numRequest */\n    tag_75:\n      sload(0x07)\n      dup2\n      jump\t// out\n        /* \"contract\":1589:1748  function contribute() public payable{\r... */\n    tag_78:\n        /* \"contract\":1656:1675  minimumContribution */\n      sload(0x01)\n        /* \"contract\":1644:1653  msg.value */\n      callvalue\n        /* \"contract\":1644:1675  msg.value > minimumContribution */\n      gt\n        /* \"contract\":1636:1676  require(msg.value > minimumContribution) */\n      tag_135\n      jumpi\n      0x00\n      dup1\n      revert\n    tag_135:\n        /* \"contract\":1711:1715  true */\n      0x01\n        /* \"contract\":1687:1696  approvers */\n      0x04\n        /* \"contract\":1687:1708  approvers[msg.sender] */\n      0x00\n        /* \"contract\":1697:1707  msg.sender */\n      caller\n        /* \"contract\":1687:1708  approvers[msg.sender] */\n      0xffffffffffffffffffffffffffffffffffffffff\n      and\n      0xffffffffffffffffffffffffffffffffffffffff\n      and\n      dup2\n      mstore\n      0x20\n      add\n      swap1\n      dup2\n      mstore\n      0x20\n      add\n      0x00\n      keccak256\n      0x00\n        /* \"contract\":1687:1715  approvers[msg.sender] = true */\n      0x0100\n      exp\n      dup2\n      sload\n      dup2\n      0xff\n      mul\n      not\n      and\n      swap1\n      dup4\n      iszero\n      iszero\n      mul\n      or\n      swap1\n      sstore\n      pop\n        /* \"contract\":1726:1738  numApprovers */\n      0x05\n      0x00\n        /* \"contract\":1726:1740  numApprovers++ */\n      dup2\n      sload\n      dup1\n      swap3\n      swap2\n      swap1\n      tag_136\n      swap1\n      tag_120\n      jump\t// in\n    tag_136:\n      swap2\n      swap1\n      pop\n      sstore\n      pop\n        /* \"contract\":1589:1748  function contribute() public payable{\r... */\n      jump\t// out\n        /* \"contract\":2203:2623  function approveRequest(uint requestIndex) public{\r... */\n    tag_82:\n        /* \"contract\":2310:2319  approvers */\n      0x04\n        /* \"contract\":2310:2331  approvers[msg.sender] */\n      0x00\n        /* \"contract\":2320:2330  msg.sender */\n      caller\n        /* \"contract\":2310:2331  approvers[msg.sender] */\n      0xffffffffffffffffffffffffffffffffffffffff\n      and\n      0xffffffffffffffffffffffffffffffffffffffff\n      and\n      dup2\n      mstore\n      0x20\n      add\n      swap1\n      dup2\n      mstore\n      0x20\n      add\n      0x00\n      keccak256\n      0x00\n      swap1\n      sload\n      swap1\n      0x0100\n      exp\n      swap1\n      div\n      0xff\n      and\n        /* \"contract\":2302:2332  require(approvers[msg.sender]) */\n      tag_138\n      jumpi\n      0x00\n      dup1\n      revert\n    tag_138:\n        /* \"contract\":2353:2376  Request storage request */\n      0x00\n        /* \"contract\":2379:2387  requests */\n      0x06\n        /* \"contract\":2388:2400  requestIndex */\n      dup3\n        /* \"contract\":2379:2401  requests[requestIndex] */\n      dup2\n      sload\n      dup2\n      lt\n      tag_139\n      jumpi\n      mstore(0x00, 0x4e487b7100000000000000000000000000000000000000000000000000000000)\n      mstore(0x04, 0x32)\n      revert(0x00, 0x24)\n    tag_139:\n      swap1\n      0x00\n      mstore\n      keccak256(0x00, 0x20)\n      swap1\n      0x05\n      mul\n      add\n        /* \"contract\":2353:2401  Request storage request = requests[requestIndex] */\n      swap1\n      pop\n        /* \"contract\":2484:2491  request */\n      dup1\n        /* \"contract\":2484:2501  request.approvals */\n      0x04\n      add\n        /* \"contract\":2484:2513  request.approvals[msg.sender] */\n      0x00\n        /* \"contract\":2502:2512  msg.sender */\n      caller\n        /* \"contract\":2484:2513  request.approvals[msg.sender] */\n      0xffffffffffffffffffffffffffffffffffffffff\n      and\n      0xffffffffffffffffffffffffffffffffffffffff\n      and\n      dup2\n      mstore\n      0x20\n      add\n      swap1\n      dup2\n      mstore\n      0x20\n      add\n      0x00\n      keccak256\n      0x00\n      swap1\n      sload\n      swap1\n      0x0100\n      exp\n      swap1\n      div\n      0xff\n      and\n        /* \"contract\":2483:2513  !request.approvals[msg.sender] */\n      iszero\n        /* \"contract\":2475:2514  require(!request.approvals[msg.sender]) */\n      tag_141\n      jumpi\n      0x00\n      dup1\n      revert\n    tag_141:\n        /* \"contract\":2567:2571  true */\n      0x01\n        /* \"contract\":2535:2542  request */\n      dup2\n        /* \"contract\":2535:2552  request.approvals */\n      0x04\n      add\n        /* \"contract\":2535:2564  request.approvals[msg.sender] */\n      0x00\n        /* \"contract\":2553:2563  msg.sender */\n      caller\n        /* \"contract\":2535:2564  request.approvals[msg.sender] */\n      0xffffffffffffffffffffffffffffffffffffffff\n      and\n      0xffffffffffffffffffffffffffffffffffffffff\n      and\n      dup2\n      mstore\n      0x20\n      add\n      swap1\n      dup2\n      mstore\n      0x20\n      add\n      0x00\n      keccak256\n      0x00\n        /* \"contract\":2535:2571  request.approvals[msg.sender] = true */\n      0x0100\n      exp\n      dup2\n      sload\n      dup2\n      0xff\n      mul\n      not\n      and\n      swap1\n      dup4\n      iszero\n      iszero\n      mul\n      or\n      swap1\n      sstore\n      pop\n        /* \"contract\":2582:2589  request */\n      dup1\n        /* \"contract\":2582:2603  request.approvalCount */\n      0x03\n      add\n      0x00\n        /* \"contract\":2582:2605  request.approvalCount++ */\n      dup2\n      sload\n      dup1\n      swap3\n      swap2\n      swap1\n      tag_142\n      swap1\n      tag_120\n      jump\t// in\n    tag_142:\n      swap2\n      swap1\n      pop\n      sstore\n      pop\n        /* \"contract\":2203:2623  function approveRequest(uint requestIndex) public{\r... */\n      pop\n      pop\n      jump\t// out\n    tag_122:\n      dup3\n      dup1\n      sload\n      tag_143\n      swap1\n      tag_95\n      jump\t// in\n    tag_143:\n      swap1\n      0x00\n      mstore\n      keccak256(0x00, 0x20)\n      swap1\n      0x1f\n      add\n      0x20\n      swap1\n      div\n      dup2\n      add\n      swap3\n      dup3\n      tag_145\n      jumpi\n      0x00\n      dup6\n      sstore\n      jump(tag_144)\n    tag_145:\n      dup3\n      0x1f\n      lt\n      tag_146\n      jumpi\n      dup1\n      mload\n      not(0xff)\n      and\n      dup4\n      dup1\n      add\n      or\n      dup6\n      sstore\n      jump(tag_144)\n    tag_146:\n      dup3\n      dup1\n      add\n      0x01\n      add\n      dup6\n      sstore\n      dup3\n      iszero\n      tag_144\n      jumpi\n      swap2\n      dup3\n      add\n    tag_147:\n      dup3\n      dup2\n      gt\n      iszero\n      tag_148\n      jumpi\n      dup3\n      mload\n      dup3\n      sstore\n      swap2\n      0x20\n      add\n      swap2\n      swap1\n      0x01\n      add\n      swap1\n      jump(tag_147)\n    tag_148:\n    tag_144:\n      pop\n      swap1\n      pop\n      tag_149\n      swap2\n      swap1\n      tag_150\n      jump\t// in\n    tag_149:\n      pop\n      swap1\n      jump\t// out\n    tag_150:\n    tag_151:\n      dup1\n      dup3\n      gt\n      iszero\n      tag_152\n      jumpi\n      0x00\n      dup2\n      0x00\n      swap1\n      sstore\n      pop\n      0x01\n      add\n      jump(tag_151)\n    tag_152:\n      pop\n      swap1\n      jump\t// out\n        /* \"#utility.yul\":7:352   */\n    tag_154:\n        /* \"#utility.yul\":85:90   */\n      0x00\n        /* \"#utility.yul\":110:176   */\n      tag_156\n        /* \"#utility.yul\":126:175   */\n      tag_157\n        /* \"#utility.yul\":168:174   */\n      dup5\n        /* \"#utility.yul\":126:175   */\n      tag_158\n      jump\t// in\n    tag_157:\n        /* \"#utility.yul\":110:176   */\n      tag_159\n      jump\t// in\n    tag_156:\n        /* \"#utility.yul\":101:176   */\n      swap1\n      pop\n        /* \"#utility.yul\":199:205   */\n      dup3\n        /* \"#utility.yul\":192:197   */\n      dup2\n        /* \"#utility.yul\":185:206   */\n      mstore\n        /* \"#utility.yul\":237:241   */\n      0x20\n        /* \"#utility.yul\":230:235   */\n      dup2\n        /* \"#utility.yul\":226:242   */\n      add\n        /* \"#utility.yul\":275:278   */\n      dup5\n        /* \"#utility.yul\":266:272   */\n      dup5\n        /* \"#utility.yul\":261:264   */\n      dup5\n        /* \"#utility.yul\":257:273   */\n      add\n        /* \"#utility.yul\":254:279   */\n      gt\n        /* \"#utility.yul\":251:253   */\n      iszero\n      tag_160\n      jumpi\n        /* \"#utility.yul\":292:293   */\n      0x00\n        /* \"#utility.yul\":289:290   */\n      dup1\n        /* \"#utility.yul\":282:294   */\n      revert\n        /* \"#utility.yul\":251:253   */\n    tag_160:\n        /* \"#utility.yul\":305:346   */\n      tag_161\n        /* \"#utility.yul\":339:345   */\n      dup5\n        /* \"#utility.yul\":334:337   */\n      dup3\n        /* \"#utility.yul\":329:332   */\n      dup6\n        /* \"#utility.yul\":305:346   */\n      tag_162\n      jump\t// in\n    tag_161:\n        /* \"#utility.yul\":91:352   */\n      pop\n      swap4\n      swap3\n      pop\n      pop\n      pop\n      jump\t// out\n        /* \"#utility.yul\":358:497   */\n    tag_163:\n        /* \"#utility.yul\":404:409   */\n      0x00\n        /* \"#utility.yul\":442:448   */\n      dup2\n        /* \"#utility.yul\":429:449   */\n      calldataload\n        /* \"#utility.yul\":420:449   */\n      swap1\n      pop\n        /* \"#utility.yul\":458:491   */\n      tag_165\n        /* \"#utility.yul\":485:490   */\n      dup2\n        /* \"#utility.yul\":458:491   */\n      tag_166\n      jump\t// in\n    tag_165:\n        /* \"#utility.yul\":410:497   */\n      swap3\n      swap2\n      pop\n      pop\n      jump\t// out\n        /* \"#utility.yul\":517:790   */\n    tag_167:\n        /* \"#utility.yul\":573:578   */\n      0x00\n        /* \"#utility.yul\":622:625   */\n      dup3\n        /* \"#utility.yul\":615:619   */\n      0x1f\n        /* \"#utility.yul\":607:613   */\n      dup4\n        /* \"#utility.yul\":603:620   */\n      add\n        /* \"#utility.yul\":599:626   */\n      slt\n        /* \"#utility.yul\":589:591   */\n      tag_169\n      jumpi\n        /* \"#utility.yul\":640:641   */\n      0x00\n        /* \"#utility.yul\":637:638   */\n      dup1\n        /* \"#utility.yul\":630:642   */\n      revert\n        /* \"#utility.yul\":589:591   */\n    tag_169:\n        /* \"#utility.yul\":680:686   */\n      dup2\n        /* \"#utility.yul\":667:687   */\n      calldataload\n        /* \"#utility.yul\":705:784   */\n      tag_170\n        /* \"#utility.yul\":780:783   */\n      dup5\n        /* \"#utility.yul\":772:778   */\n      dup3\n        /* \"#utility.yul\":765:769   */\n      0x20\n        /* \"#utility.yul\":757:763   */\n      dup7\n        /* \"#utility.yul\":753:770   */\n      add\n        /* \"#utility.yul\":705:784   */\n      tag_154\n      jump\t// in\n    tag_170:\n        /* \"#utility.yul\":696:784   */\n      swap2\n      pop\n        /* \"#utility.yul\":579:790   */\n      pop\n      swap3\n      swap2\n      pop\n      pop\n      jump\t// out\n        /* \"#utility.yul\":796:935   */\n    tag_171:\n        /* \"#utility.yul\":842:847   */\n      0x00\n        /* \"#utility.yul\":880:886   */\n      dup2\n        /* \"#utility.yul\":867:887   */\n      calldataload\n        /* \"#utility.yul\":858:887   */\n      swap1\n      pop\n        /* \"#utility.yul\":896:929   */\n      tag_173\n        /* \"#utility.yul\":923:928   */\n      dup2\n        /* \"#utility.yul\":896:929   */\n      tag_174\n      jump\t// in\n    tag_173:\n        /* \"#utility.yul\":848:935   */\n      swap3\n      swap2\n      pop\n      pop\n      jump\t// out\n        /* \"#utility.yul\":941:1203   */\n    tag_26:\n        /* \"#utility.yul\":1000:1006   */\n      0x00\n        /* \"#utility.yul\":1049:1051   */\n      0x20\n        /* \"#utility.yul\":1037:1046   */\n      dup3\n        /* \"#utility.yul\":1028:1035   */\n      dup5\n        /* \"#utility.yul\":1024:1047   */\n      sub\n        /* \"#utility.yul\":1020:1052   */\n      slt\n        /* \"#utility.yul\":1017:1019   */\n      iszero\n      tag_176\n      jumpi\n        /* \"#utility.yul\":1065:1066   */\n      0x00\n        /* \"#utility.yul\":1062:1063   */\n      dup1\n        /* \"#utility.yul\":1055:1067   */\n      revert\n        /* \"#utility.yul\":1017:1019   */\n    tag_176:\n        /* \"#utility.yul\":1108:1109   */\n      0x00\n        /* \"#utility.yul\":1133:1186   */\n      tag_177\n        /* \"#utility.yul\":1178:1185   */\n      dup5\n        /* \"#utility.yul\":1169:1175   */\n      dup3\n        /* \"#utility.yul\":1158:1167   */\n      dup6\n        /* \"#utility.yul\":1154:1176   */\n      add\n        /* \"#utility.yul\":1133:1186   */\n      tag_163\n      jump\t// in\n    tag_177:\n        /* \"#utility.yul\":1123:1186   */\n      swap2\n      pop\n        /* \"#utility.yul\":1079:1196   */\n      pop\n        /* \"#utility.yul\":1007:1203   */\n      swap3\n      swap2\n      pop\n      pop\n      jump\t// out\n        /* \"#utility.yul\":1209:1874   */\n    tag_62:\n        /* \"#utility.yul\":1296:1302   */\n      0x00\n        /* \"#utility.yul\":1304:1310   */\n      dup1\n        /* \"#utility.yul\":1312:1318   */\n      0x00\n        /* \"#utility.yul\":1361:1363   */\n      0x60\n        /* \"#utility.yul\":1349:1358   */\n      dup5\n        /* \"#utility.yul\":1340:1347   */\n      dup7\n        /* \"#utility.yul\":1336:1359   */\n      sub\n        /* \"#utility.yul\":1332:1364   */\n      slt\n        /* \"#utility.yul\":1329:1331   */\n      iszero\n      tag_179\n      jumpi\n        /* \"#utility.yul\":1377:1378   */\n      0x00\n        /* \"#utility.yul\":1374:1375   */\n      dup1\n        /* \"#utility.yul\":1367:1379   */\n      revert\n        /* \"#utility.yul\":1329:1331   */\n    tag_179:\n        /* \"#utility.yul\":1448:1449   */\n      0x00\n        /* \"#utility.yul\":1437:1446   */\n      dup5\n        /* \"#utility.yul\":1433:1450   */\n      add\n        /* \"#utility.yul\":1420:1451   */\n      calldataload\n        /* \"#utility.yul\":1478:1496   */\n      0xffffffffffffffff\n        /* \"#utility.yul\":1470:1476   */\n      dup2\n        /* \"#utility.yul\":1467:1497   */\n      gt\n        /* \"#utility.yul\":1464:1466   */\n      iszero\n      tag_180\n      jumpi\n        /* \"#utility.yul\":1510:1511   */\n      0x00\n        /* \"#utility.yul\":1507:1508   */\n      dup1\n        /* \"#utility.yul\":1500:1512   */\n      revert\n        /* \"#utility.yul\":1464:1466   */\n    tag_180:\n        /* \"#utility.yul\":1538:1601   */\n      tag_181\n        /* \"#utility.yul\":1593:1600   */\n      dup7\n        /* \"#utility.yul\":1584:1590   */\n      dup3\n        /* \"#utility.yul\":1573:1582   */\n      dup8\n        /* \"#utility.yul\":1569:1591   */\n      add\n        /* \"#utility.yul\":1538:1601   */\n      tag_167\n      jump\t// in\n    tag_181:\n        /* \"#utility.yul\":1528:1601   */\n      swap4\n      pop\n        /* \"#utility.yul\":1391:1611   */\n      pop\n        /* \"#utility.yul\":1650:1652   */\n      0x20\n        /* \"#utility.yul\":1676:1729   */\n      tag_182\n        /* \"#utility.yul\":1721:1728   */\n      dup7\n        /* \"#utility.yul\":1712:1718   */\n      dup3\n        /* \"#utility.yul\":1701:1710   */\n      dup8\n        /* \"#utility.yul\":1697:1719   */\n      add\n        /* \"#utility.yul\":1676:1729   */\n      tag_171\n      jump\t// in\n    tag_182:\n        /* \"#utility.yul\":1666:1729   */\n      swap3\n      pop\n        /* \"#utility.yul\":1621:1739   */\n      pop\n        /* \"#utility.yul\":1778:1780   */\n      0x40\n        /* \"#utility.yul\":1804:1857   */\n      tag_183\n        /* \"#utility.yul\":1849:1856   */\n      dup7\n        /* \"#utility.yul\":1840:1846   */\n      dup3\n        /* \"#utility.yul\":1829:1838   */\n      dup8\n        /* \"#utility.yul\":1825:1847   */\n      add\n        /* \"#utility.yul\":1804:1857   */\n      tag_163\n      jump\t// in\n    tag_183:\n        /* \"#utility.yul\":1794:1857   */\n      swap2\n      pop\n        /* \"#utility.yul\":1749:1867   */\n      pop\n        /* \"#utility.yul\":1319:1874   */\n      swap3\n      pop\n      swap3\n      pop\n      swap3\n      jump\t// out\n        /* \"#utility.yul\":1880:2142   */\n    tag_21:\n        /* \"#utility.yul\":1939:1945   */\n      0x00\n        /* \"#utility.yul\":1988:1990   */\n      0x20\n        /* \"#utility.yul\":1976:1985   */\n      dup3\n        /* \"#utility.yul\":1967:1974   */\n      dup5\n        /* \"#utility.yul\":1963:1986   */\n      sub\n        /* \"#utility.yul\":1959:1991   */\n      slt\n        /* \"#utility.yul\":1956:1958   */\n      iszero\n      tag_185\n      jumpi\n        /* \"#utility.yul\":2004:2005   */\n      0x00\n        /* \"#utility.yul\":2001:2002   */\n      dup1\n        /* \"#utility.yul\":1994:2006   */\n      revert\n        /* \"#utility.yul\":1956:1958   */\n    tag_185:\n        /* \"#utility.yul\":2047:2048   */\n      0x00\n        /* \"#utility.yul\":2072:2125   */\n      tag_186\n        /* \"#utility.yul\":2117:2124   */\n      dup5\n        /* \"#utility.yul\":2108:2114   */\n      dup3\n        /* \"#utility.yul\":2097:2106   */\n      dup6\n        /* \"#utility.yul\":2093:2115   */\n      add\n        /* \"#utility.yul\":2072:2125   */\n      tag_171\n      jump\t// in\n    tag_186:\n        /* \"#utility.yul\":2062:2125   */\n      swap2\n      pop\n        /* \"#utility.yul\":2018:2135   */\n      pop\n        /* \"#utility.yul\":1946:2142   */\n      swap3\n      swap2\n      pop\n      pop\n      jump\t// out\n        /* \"#utility.yul\":2148:2266   */\n    tag_187:\n        /* \"#utility.yul\":2235:2259   */\n      tag_189\n        /* \"#utility.yul\":2253:2258   */\n      dup2\n        /* \"#utility.yul\":2235:2259   */\n      tag_190\n      jump\t// in\n    tag_189:\n        /* \"#utility.yul\":2230:2233   */\n      dup3\n        /* \"#utility.yul\":2223:2260   */\n      mstore\n        /* \"#utility.yul\":2213:2266   */\n      pop\n      pop\n      jump\t// out\n        /* \"#utility.yul\":2272:2381   */\n    tag_191:\n        /* \"#utility.yul\":2353:2374   */\n      tag_193\n        /* \"#utility.yul\":2368:2373   */\n      dup2\n        /* \"#utility.yul\":2353:2374   */\n      tag_194\n      jump\t// in\n    tag_193:\n        /* \"#utility.yul\":2348:2351   */\n      dup3\n        /* \"#utility.yul\":2341:2375   */\n      mstore\n        /* \"#utility.yul\":2331:2381   */\n      pop\n      pop\n      jump\t// out\n        /* \"#utility.yul\":2387:2751   */\n    tag_195:\n        /* \"#utility.yul\":2475:2478   */\n      0x00\n        /* \"#utility.yul\":2503:2542   */\n      tag_197\n        /* \"#utility.yul\":2536:2541   */\n      dup3\n        /* \"#utility.yul\":2503:2542   */\n      tag_198\n      jump\t// in\n    tag_197:\n        /* \"#utility.yul\":2558:2629   */\n      tag_199\n        /* \"#utility.yul\":2622:2628   */\n      dup2\n        /* \"#utility.yul\":2617:2620   */\n      dup6\n        /* \"#utility.yul\":2558:2629   */\n      tag_200\n      jump\t// in\n    tag_199:\n        /* \"#utility.yul\":2551:2629   */\n      swap4\n      pop\n        /* \"#utility.yul\":2638:2690   */\n      tag_201\n        /* \"#utility.yul\":2683:2689   */\n      dup2\n        /* \"#utility.yul\":2678:2681   */\n      dup6\n        /* \"#utility.yul\":2671:2675   */\n      0x20\n        /* \"#utility.yul\":2664:2669   */\n      dup7\n        /* \"#utility.yul\":2660:2676   */\n      add\n        /* \"#utility.yul\":2638:2690   */\n      tag_202\n      jump\t// in\n    tag_201:\n        /* \"#utility.yul\":2715:2744   */\n      tag_203\n        /* \"#utility.yul\":2737:2743   */\n      dup2\n        /* \"#utility.yul\":2715:2744   */\n      tag_204\n      jump\t// in\n    tag_203:\n        /* \"#utility.yul\":2710:2713   */\n      dup5\n        /* \"#utility.yul\":2706:2745   */\n      add\n        /* \"#utility.yul\":2699:2745   */\n      swap2\n      pop\n        /* \"#utility.yul\":2479:2751   */\n      pop\n      swap3\n      swap2\n      pop\n      pop\n      jump\t// out\n        /* \"#utility.yul\":2757:2875   */\n    tag_205:\n        /* \"#utility.yul\":2844:2868   */\n      tag_207\n        /* \"#utility.yul\":2862:2867   */\n      dup2\n        /* \"#utility.yul\":2844:2868   */\n      tag_208\n      jump\t// in\n    tag_207:\n        /* \"#utility.yul\":2839:2842   */\n      dup3\n        /* \"#utility.yul\":2832:2869   */\n      mstore\n        /* \"#utility.yul\":2822:2875   */\n      pop\n      pop\n      jump\t// out\n        /* \"#utility.yul\":2881:3103   */\n    tag_34:\n        /* \"#utility.yul\":2974:2978   */\n      0x00\n        /* \"#utility.yul\":3012:3014   */\n      0x20\n        /* \"#utility.yul\":3001:3010   */\n      dup3\n        /* \"#utility.yul\":2997:3015   */\n      add\n        /* \"#utility.yul\":2989:3015   */\n      swap1\n      pop\n        /* \"#utility.yul\":3025:3096   */\n      tag_210\n        /* \"#utility.yul\":3093:3094   */\n      0x00\n        /* \"#utility.yul\":3082:3091   */\n      dup4\n        /* \"#utility.yul\":3078:3095   */\n      add\n        /* \"#utility.yul\":3069:3075   */\n      dup5\n        /* \"#utility.yul\":3025:3096   */\n      tag_187\n      jump\t// in\n    tag_210:\n        /* \"#utility.yul\":2979:3103   */\n      swap3\n      swap2\n      pop\n      pop\n      jump\t// out\n        /* \"#utility.yul\":3109:3319   */\n    tag_29:\n        /* \"#utility.yul\":3196:3200   */\n      0x00\n        /* \"#utility.yul\":3234:3236   */\n      0x20\n        /* \"#utility.yul\":3223:3232   */\n      dup3\n        /* \"#utility.yul\":3219:3237   */\n      add\n        /* \"#utility.yul\":3211:3237   */\n      swap1\n      pop\n        /* \"#utility.yul\":3247:3312   */\n      tag_212\n        /* \"#utility.yul\":3309:3310   */\n      0x00\n        /* \"#utility.yul\":3298:3307   */\n      dup4\n        /* \"#utility.yul\":3294:3311   */\n      add\n        /* \"#utility.yul\":3285:3291   */\n      dup5\n        /* \"#utility.yul\":3247:3312   */\n      tag_191\n      jump\t// in\n    tag_212:\n        /* \"#utility.yul\":3201:3319   */\n      swap3\n      swap2\n      pop\n      pop\n      jump\t// out\n        /* \"#utility.yul\":3325:3638   */\n    tag_39:\n        /* \"#utility.yul\":3438:3442   */\n      0x00\n        /* \"#utility.yul\":3476:3478   */\n      0x20\n        /* \"#utility.yul\":3465:3474   */\n      dup3\n        /* \"#utility.yul\":3461:3479   */\n      add\n        /* \"#utility.yul\":3453:3479   */\n      swap1\n      pop\n        /* \"#utility.yul\":3525:3534   */\n      dup2\n        /* \"#utility.yul\":3519:3523   */\n      dup2\n        /* \"#utility.yul\":3515:3535   */\n      sub\n        /* \"#utility.yul\":3511:3512   */\n      0x00\n        /* \"#utility.yul\":3500:3509   */\n      dup4\n        /* \"#utility.yul\":3496:3513   */\n      add\n        /* \"#utility.yul\":3489:3536   */\n      mstore\n        /* \"#utility.yul\":3553:3631   */\n      tag_214\n        /* \"#utility.yul\":3626:3630   */\n      dup2\n        /* \"#utility.yul\":3617:3623   */\n      dup5\n        /* \"#utility.yul\":3553:3631   */\n      tag_195\n      jump\t// in\n    tag_214:\n        /* \"#utility.yul\":3545:3631   */\n      swap1\n      pop\n        /* \"#utility.yul\":3443:3638   */\n      swap3\n      swap2\n      pop\n      pop\n      jump\t// out\n        /* \"#utility.yul\":3644:4712   */\n    tag_72:\n        /* \"#utility.yul\":3945:3949   */\n      0x00\n        /* \"#utility.yul\":3983:3986   */\n      0xe0\n        /* \"#utility.yul\":3972:3981   */\n      dup3\n        /* \"#utility.yul\":3968:3987   */\n      add\n        /* \"#utility.yul\":3960:3987   */\n      swap1\n      pop\n        /* \"#utility.yul\":4033:4042   */\n      dup2\n        /* \"#utility.yul\":4027:4031   */\n      dup2\n        /* \"#utility.yul\":4023:4043   */\n      sub\n        /* \"#utility.yul\":4019:4020   */\n      0x00\n        /* \"#utility.yul\":4008:4017   */\n      dup4\n        /* \"#utility.yul\":4004:4021   */\n      add\n        /* \"#utility.yul\":3997:4044   */\n      mstore\n        /* \"#utility.yul\":4061:4139   */\n      tag_216\n        /* \"#utility.yul\":4134:4138   */\n      dup2\n        /* \"#utility.yul\":4125:4131   */\n      dup11\n        /* \"#utility.yul\":4061:4139   */\n      tag_195\n      jump\t// in\n    tag_216:\n        /* \"#utility.yul\":4053:4139   */\n      swap1\n      pop\n        /* \"#utility.yul\":4186:4195   */\n      dup2\n        /* \"#utility.yul\":4180:4184   */\n      dup2\n        /* \"#utility.yul\":4176:4196   */\n      sub\n        /* \"#utility.yul\":4171:4173   */\n      0x20\n        /* \"#utility.yul\":4160:4169   */\n      dup4\n        /* \"#utility.yul\":4156:4174   */\n      add\n        /* \"#utility.yul\":4149:4197   */\n      mstore\n        /* \"#utility.yul\":4214:4292   */\n      tag_217\n        /* \"#utility.yul\":4287:4291   */\n      dup2\n        /* \"#utility.yul\":4278:4284   */\n      dup10\n        /* \"#utility.yul\":4214:4292   */\n      tag_195\n      jump\t// in\n    tag_217:\n        /* \"#utility.yul\":4206:4292   */\n      swap1\n      pop\n        /* \"#utility.yul\":4302:4374   */\n      tag_218\n        /* \"#utility.yul\":4370:4372   */\n      0x40\n        /* \"#utility.yul\":4359:4368   */\n      dup4\n        /* \"#utility.yul\":4355:4373   */\n      add\n        /* \"#utility.yul\":4346:4352   */\n      dup9\n        /* \"#utility.yul\":4302:4374   */\n      tag_187\n      jump\t// in\n    tag_218:\n        /* \"#utility.yul\":4384:4456   */\n      tag_219\n        /* \"#utility.yul\":4452:4454   */\n      0x60\n        /* \"#utility.yul\":4441:4450   */\n      dup4\n        /* \"#utility.yul\":4437:4455   */\n      add\n        /* \"#utility.yul\":4428:4434   */\n      dup8\n        /* \"#utility.yul\":4384:4456   */\n      tag_205\n      jump\t// in\n    tag_219:\n        /* \"#utility.yul\":4466:4539   */\n      tag_220\n        /* \"#utility.yul\":4534:4537   */\n      0x80\n        /* \"#utility.yul\":4523:4532   */\n      dup4\n        /* \"#utility.yul\":4519:4538   */\n      add\n        /* \"#utility.yul\":4510:4516   */\n      dup7\n        /* \"#utility.yul\":4466:4539   */\n      tag_205\n      jump\t// in\n    tag_220:\n        /* \"#utility.yul\":4549:4622   */\n      tag_221\n        /* \"#utility.yul\":4617:4620   */\n      0xa0\n        /* \"#utility.yul\":4606:4615   */\n      dup4\n        /* \"#utility.yul\":4602:4621   */\n      add\n        /* \"#utility.yul\":4593:4599   */\n      dup6\n        /* \"#utility.yul\":4549:4622   */\n      tag_205\n      jump\t// in\n    tag_221:\n        /* \"#utility.yul\":4632:4705   */\n      tag_222\n        /* \"#utility.yul\":4700:4703   */\n      0xc0\n        /* \"#utility.yul\":4689:4698   */\n      dup4\n        /* \"#utility.yul\":4685:4704   */\n      add\n        /* \"#utility.yul\":4676:4682   */\n      dup5\n        /* \"#utility.yul\":4632:4705   */\n      tag_205\n      jump\t// in\n    tag_222:\n        /* \"#utility.yul\":3950:4712   */\n      swap9\n      swap8\n      pop\n      pop\n      pop\n      pop\n      pop\n      pop\n      pop\n      pop\n      jump\t// out\n        /* \"#utility.yul\":4718:5461   */\n    tag_58:\n        /* \"#utility.yul\":4937:4941   */\n      0x00\n        /* \"#utility.yul\":4975:4978   */\n      0xa0\n        /* \"#utility.yul\":4964:4973   */\n      dup3\n        /* \"#utility.yul\":4960:4979   */\n      add\n        /* \"#utility.yul\":4952:4979   */\n      swap1\n      pop\n        /* \"#utility.yul\":5025:5034   */\n      dup2\n        /* \"#utility.yul\":5019:5023   */\n      dup2\n        /* \"#utility.yul\":5015:5035   */\n      sub\n        /* \"#utility.yul\":5011:5012   */\n      0x00\n        /* \"#utility.yul\":5000:5009   */\n      dup4\n        /* \"#utility.yul\":4996:5013   */\n      add\n        /* \"#utility.yul\":4989:5036   */\n      mstore\n        /* \"#utility.yul\":5053:5131   */\n      tag_224\n        /* \"#utility.yul\":5126:5130   */\n      dup2\n        /* \"#utility.yul\":5117:5123   */\n      dup9\n        /* \"#utility.yul\":5053:5131   */\n      tag_195\n      jump\t// in\n    tag_224:\n        /* \"#utility.yul\":5045:5131   */\n      swap1\n      pop\n        /* \"#utility.yul\":5141:5213   */\n      tag_225\n        /* \"#utility.yul\":5209:5211   */\n      0x20\n        /* \"#utility.yul\":5198:5207   */\n      dup4\n        /* \"#utility.yul\":5194:5212   */\n      add\n        /* \"#utility.yul\":5185:5191   */\n      dup8\n        /* \"#utility.yul\":5141:5213   */\n      tag_205\n      jump\t// in\n    tag_225:\n        /* \"#utility.yul\":5223:5295   */\n      tag_226\n        /* \"#utility.yul\":5291:5293   */\n      0x40\n        /* \"#utility.yul\":5280:5289   */\n      dup4\n        /* \"#utility.yul\":5276:5294   */\n      add\n        /* \"#utility.yul\":5267:5273   */\n      dup7\n        /* \"#utility.yul\":5223:5295   */\n      tag_187\n      jump\t// in\n    tag_226:\n        /* \"#utility.yul\":5305:5371   */\n      tag_227\n        /* \"#utility.yul\":5367:5369   */\n      0x60\n        /* \"#utility.yul\":5356:5365   */\n      dup4\n        /* \"#utility.yul\":5352:5370   */\n      add\n        /* \"#utility.yul\":5343:5349   */\n      dup6\n        /* \"#utility.yul\":5305:5371   */\n      tag_191\n      jump\t// in\n    tag_227:\n        /* \"#utility.yul\":5381:5454   */\n      tag_228\n        /* \"#utility.yul\":5449:5452   */\n      0x80\n        /* \"#utility.yul\":5438:5447   */\n      dup4\n        /* \"#utility.yul\":5434:5453   */\n      add\n        /* \"#utility.yul\":5425:5431   */\n      dup5\n        /* \"#utility.yul\":5381:5454   */\n      tag_205\n      jump\t// in\n    tag_228:\n        /* \"#utility.yul\":4942:5461   */\n      swap7\n      swap6\n      pop\n      pop\n      pop\n      pop\n      pop\n      pop\n      jump\t// out\n        /* \"#utility.yul\":5467:5689   */\n    tag_44:\n        /* \"#utility.yul\":5560:5564   */\n      0x00\n        /* \"#utility.yul\":5598:5600   */\n      0x20\n        /* \"#utility.yul\":5587:5596   */\n      dup3\n        /* \"#utility.yul\":5583:5601   */\n      add\n        /* \"#utility.yul\":5575:5601   */\n      swap1\n      pop\n        /* \"#utility.yul\":5611:5682   */\n      tag_230\n        /* \"#utility.yul\":5679:5680   */\n      0x00\n        /* \"#utility.yul\":5668:5677   */\n      dup4\n        /* \"#utility.yul\":5664:5681   */\n      add\n        /* \"#utility.yul\":5655:5661   */\n      dup5\n        /* \"#utility.yul\":5611:5682   */\n      tag_205\n      jump\t// in\n    tag_230:\n        /* \"#utility.yul\":5565:5689   */\n      swap3\n      swap2\n      pop\n      pop\n      jump\t// out\n        /* \"#utility.yul\":5695:5824   */\n    tag_159:\n        /* \"#utility.yul\":5729:5735   */\n      0x00\n        /* \"#utility.yul\":5756:5776   */\n      tag_232\n      tag_233\n      jump\t// in\n    tag_232:\n        /* \"#utility.yul\":5746:5776   */\n      swap1\n      pop\n        /* \"#utility.yul\":5785:5818   */\n      tag_234\n        /* \"#utility.yul\":5813:5817   */\n      dup3\n        /* \"#utility.yul\":5805:5811   */\n      dup3\n        /* \"#utility.yul\":5785:5818   */\n      tag_235\n      jump\t// in\n    tag_234:\n        /* \"#utility.yul\":5736:5824   */\n      swap2\n      swap1\n      pop\n      jump\t// out\n        /* \"#utility.yul\":5830:5905   */\n    tag_233:\n        /* \"#utility.yul\":5863:5869   */\n      0x00\n        /* \"#utility.yul\":5896:5898   */\n      0x40\n        /* \"#utility.yul\":5890:5899   */\n      mload\n        /* \"#utility.yul\":5880:5899   */\n      swap1\n      pop\n        /* \"#utility.yul\":5870:5905   */\n      swap1\n      jump\t// out\n        /* \"#utility.yul\":5911:6219   */\n    tag_158:\n        /* \"#utility.yul\":5973:5977   */\n      0x00\n        /* \"#utility.yul\":6063:6081   */\n      0xffffffffffffffff\n        /* \"#utility.yul\":6055:6061   */\n      dup3\n        /* \"#utility.yul\":6052:6082   */\n      gt\n        /* \"#utility.yul\":6049:6051   */\n      iszero\n      tag_238\n      jumpi\n        /* \"#utility.yul\":6085:6103   */\n      tag_239\n      tag_240\n      jump\t// in\n    tag_239:\n        /* \"#utility.yul\":6049:6051   */\n    tag_238:\n        /* \"#utility.yul\":6123:6152   */\n      tag_241\n        /* \"#utility.yul\":6145:6151   */\n      dup3\n        /* \"#utility.yul\":6123:6152   */\n      tag_204\n      jump\t// in\n    tag_241:\n        /* \"#utility.yul\":6115:6152   */\n      swap1\n      pop\n        /* \"#utility.yul\":6207:6211   */\n      0x20\n        /* \"#utility.yul\":6201:6205   */\n      dup2\n        /* \"#utility.yul\":6197:6212   */\n      add\n        /* \"#utility.yul\":6189:6212   */\n      swap1\n      pop\n        /* \"#utility.yul\":5978:6219   */\n      swap2\n      swap1\n      pop\n      jump\t// out\n        /* \"#utility.yul\":6225:6324   */\n    tag_198:\n        /* \"#utility.yul\":6277:6283   */\n      0x00\n        /* \"#utility.yul\":6311:6316   */\n      dup2\n        /* \"#utility.yul\":6305:6317   */\n      mload\n        /* \"#utility.yul\":6295:6317   */\n      swap1\n      pop\n        /* \"#utility.yul\":6284:6324   */\n      swap2\n      swap1\n      pop\n      jump\t// out\n        /* \"#utility.yul\":6330:6499   */\n    tag_200:\n        /* \"#utility.yul\":6414:6425   */\n      0x00\n        /* \"#utility.yul\":6448:6454   */\n      dup3\n        /* \"#utility.yul\":6443:6446   */\n      dup3\n        /* \"#utility.yul\":6436:6455   */\n      mstore\n        /* \"#utility.yul\":6488:6492   */\n      0x20\n        /* \"#utility.yul\":6483:6486   */\n      dup3\n        /* \"#utility.yul\":6479:6493   */\n      add\n        /* \"#utility.yul\":6464:6493   */\n      swap1\n      pop\n        /* \"#utility.yul\":6426:6499   */\n      swap3\n      swap2\n      pop\n      pop\n      jump\t// out\n        /* \"#utility.yul\":6505:6690   */\n    tag_90:\n        /* \"#utility.yul\":6545:6546   */\n      0x00\n        /* \"#utility.yul\":6562:6582   */\n      tag_245\n        /* \"#utility.yul\":6580:6581   */\n      dup3\n        /* \"#utility.yul\":6562:6582   */\n      tag_208\n      jump\t// in\n    tag_245:\n        /* \"#utility.yul\":6557:6582   */\n      swap2\n      pop\n        /* \"#utility.yul\":6596:6616   */\n      tag_246\n        /* \"#utility.yul\":6614:6615   */\n      dup4\n        /* \"#utility.yul\":6596:6616   */\n      tag_208\n      jump\t// in\n    tag_246:\n        /* \"#utility.yul\":6591:6616   */\n      swap3\n      pop\n        /* \"#utility.yul\":6635:6636   */\n      dup3\n        /* \"#utility.yul\":6625:6627   */\n      tag_247\n      jumpi\n        /* \"#utility.yul\":6640:6658   */\n      tag_248\n      tag_249\n      jump\t// in\n    tag_248:\n        /* \"#utility.yul\":6625:6627   */\n    tag_247:\n        /* \"#utility.yul\":6682:6683   */\n      dup3\n        /* \"#utility.yul\":6679:6680   */\n      dup3\n        /* \"#utility.yul\":6675:6684   */\n      div\n        /* \"#utility.yul\":6670:6684   */\n      swap1\n      pop\n        /* \"#utility.yul\":6547:6690   */\n      swap3\n      swap2\n      pop\n      pop\n      jump\t// out\n        /* \"#utility.yul\":6696:6792   */\n    tag_190:\n        /* \"#utility.yul\":6733:6740   */\n      0x00\n        /* \"#utility.yul\":6762:6786   */\n      tag_251\n        /* \"#utility.yul\":6780:6785   */\n      dup3\n        /* \"#utility.yul\":6762:6786   */\n      tag_252\n      jump\t// in\n    tag_251:\n        /* \"#utility.yul\":6751:6786   */\n      swap1\n      pop\n        /* \"#utility.yul\":6741:6792   */\n      swap2\n      swap1\n      pop\n      jump\t// out\n        /* \"#utility.yul\":6798:6888   */\n    tag_194:\n        /* \"#utility.yul\":6832:6839   */\n      0x00\n        /* \"#utility.yul\":6875:6880   */\n      dup2\n        /* \"#utility.yul\":6868:6881   */\n      iszero\n        /* \"#utility.yul\":6861:6882   */\n      iszero\n        /* \"#utility.yul\":6850:6882   */\n      swap1\n      pop\n        /* \"#utility.yul\":6840:6888   */\n      swap2\n      swap1\n      pop\n      jump\t// out\n        /* \"#utility.yul\":6894:7020   */\n    tag_252:\n        /* \"#utility.yul\":6931:6938   */\n      0x00\n        /* \"#utility.yul\":6971:7013   */\n      0xffffffffffffffffffffffffffffffffffffffff\n        /* \"#utility.yul\":6964:6969   */\n      dup3\n        /* \"#utility.yul\":6960:7014   */\n      and\n        /* \"#utility.yul\":6949:7014   */\n      swap1\n      pop\n        /* \"#utility.yul\":6939:7020   */\n      swap2\n      swap1\n      pop\n      jump\t// out\n        /* \"#utility.yul\":7026:7103   */\n    tag_208:\n        /* \"#utility.yul\":7063:7070   */\n      0x00\n        /* \"#utility.yul\":7092:7097   */\n      dup2\n        /* \"#utility.yul\":7081:7097   */\n      swap1\n      pop\n        /* \"#utility.yul\":7071:7103   */\n      swap2\n      swap1\n      pop\n      jump\t// out\n        /* \"#utility.yul\":7109:7263   */\n    tag_162:\n        /* \"#utility.yul\":7193:7199   */\n      dup3\n        /* \"#utility.yul\":7188:7191   */\n      dup2\n        /* \"#utility.yul\":7183:7186   */\n      dup4\n        /* \"#utility.yul\":7170:7200   */\n      calldatacopy\n        /* \"#utility.yul\":7255:7256   */\n      0x00\n        /* \"#utility.yul\":7246:7252   */\n      dup4\n        /* \"#utility.yul\":7241:7244   */\n      dup4\n        /* \"#utility.yul\":7237:7253   */\n      add\n        /* \"#utility.yul\":7230:7257   */\n      mstore\n        /* \"#utility.yul\":7160:7263   */\n      pop\n      pop\n      pop\n      jump\t// out\n        /* \"#utility.yul\":7269:7576   */\n    tag_202:\n        /* \"#utility.yul\":7337:7338   */\n      0x00\n        /* \"#utility.yul\":7347:7460   */\n    tag_258:\n        /* \"#utility.yul\":7361:7367   */\n      dup4\n        /* \"#utility.yul\":7358:7359   */\n      dup2\n        /* \"#utility.yul\":7355:7368   */\n      lt\n        /* \"#utility.yul\":7347:7460   */\n      iszero\n      tag_260\n      jumpi\n        /* \"#utility.yul\":7446:7447   */\n      dup1\n        /* \"#utility.yul\":7441:7444   */\n      dup3\n        /* \"#utility.yul\":7437:7448   */\n      add\n        /* \"#utility.yul\":7431:7449   */\n      mload\n        /* \"#utility.yul\":7427:7428   */\n      dup2\n        /* \"#utility.yul\":7422:7425   */\n      dup5\n        /* \"#utility.yul\":7418:7429   */\n      add\n        /* \"#utility.yul\":7411:7450   */\n      mstore\n        /* \"#utility.yul\":7383:7385   */\n      0x20\n        /* \"#utility.yul\":7380:7381   */\n      dup2\n        /* \"#utility.yul\":7376:7386   */\n      add\n        /* \"#utility.yul\":7371:7386   */\n      swap1\n      pop\n        /* \"#utility.yul\":7347:7460   */\n      jump(tag_258)\n    tag_260:\n        /* \"#utility.yul\":7478:7484   */\n      dup4\n        /* \"#utility.yul\":7475:7476   */\n      dup2\n        /* \"#utility.yul\":7472:7485   */\n      gt\n        /* \"#utility.yul\":7469:7471   */\n      iszero\n      tag_261\n      jumpi\n        /* \"#utility.yul\":7558:7559   */\n      0x00\n        /* \"#utility.yul\":7549:7555   */\n      dup5\n        /* \"#utility.yul\":7544:7547   */\n      dup5\n        /* \"#utility.yul\":7540:7556   */\n      add\n        /* \"#utility.yul\":7533:7560   */\n      mstore\n        /* \"#utility.yul\":7469:7471   */\n    tag_261:\n        /* \"#utility.yul\":7318:7576   */\n      pop\n      pop\n      pop\n      pop\n      jump\t// out\n        /* \"#utility.yul\":7582:7902   */\n    tag_95:\n        /* \"#utility.yul\":7626:7632   */\n      0x00\n        /* \"#utility.yul\":7663:7664   */\n      0x02\n        /* \"#utility.yul\":7657:7661   */\n      dup3\n        /* \"#utility.yul\":7653:7665   */\n      div\n        /* \"#utility.yul\":7643:7665   */\n      swap1\n      pop\n        /* \"#utility.yul\":7710:7711   */\n      0x01\n        /* \"#utility.yul\":7704:7708   */\n      dup3\n        /* \"#utility.yul\":7700:7712   */\n      and\n        /* \"#utility.yul\":7731:7749   */\n      dup1\n        /* \"#utility.yul\":7721:7723   */\n      tag_263\n      jumpi\n        /* \"#utility.yul\":7787:7791   */\n      0x7f\n        /* \"#utility.yul\":7779:7785   */\n      dup3\n        /* \"#utility.yul\":7775:7792   */\n      and\n        /* \"#utility.yul\":7765:7792   */\n      swap2\n      pop\n        /* \"#utility.yul\":7721:7723   */\n    tag_263:\n        /* \"#utility.yul\":7849:7851   */\n      0x20\n        /* \"#utility.yul\":7841:7847   */\n      dup3\n        /* \"#utility.yul\":7838:7852   */\n      lt\n        /* \"#utility.yul\":7818:7836   */\n      dup2\n        /* \"#utility.yul\":7815:7853   */\n      eq\n        /* \"#utility.yul\":7812:7814   */\n      iszero\n      tag_264\n      jumpi\n        /* \"#utility.yul\":7868:7886   */\n      tag_265\n      tag_266\n      jump\t// in\n    tag_265:\n        /* \"#utility.yul\":7812:7814   */\n    tag_264:\n        /* \"#utility.yul\":7633:7902   */\n      pop\n      swap2\n      swap1\n      pop\n      jump\t// out\n        /* \"#utility.yul\":7908:8189   */\n    tag_235:\n        /* \"#utility.yul\":7991:8018   */\n      tag_268\n        /* \"#utility.yul\":8013:8017   */\n      dup3\n        /* \"#utility.yul\":7991:8018   */\n      tag_204\n      jump\t// in\n    tag_268:\n        /* \"#utility.yul\":7983:7989   */\n      dup2\n        /* \"#utility.yul\":7979:8019   */\n      add\n        /* \"#utility.yul\":8121:8127   */\n      dup2\n        /* \"#utility.yul\":8109:8119   */\n      dup2\n        /* \"#utility.yul\":8106:8128   */\n      lt\n        /* \"#utility.yul\":8085:8103   */\n      0xffffffffffffffff\n        /* \"#utility.yul\":8073:8083   */\n      dup3\n        /* \"#utility.yul\":8070:8104   */\n      gt\n        /* \"#utility.yul\":8067:8129   */\n      or\n        /* \"#utility.yul\":8064:8066   */\n      iszero\n      tag_269\n      jumpi\n        /* \"#utility.yul\":8132:8150   */\n      tag_270\n      tag_240\n      jump\t// in\n    tag_270:\n        /* \"#utility.yul\":8064:8066   */\n    tag_269:\n        /* \"#utility.yul\":8172:8182   */\n      dup1\n        /* \"#utility.yul\":8168:8170   */\n      0x40\n        /* \"#utility.yul\":8161:8183   */\n      mstore\n        /* \"#utility.yul\":7951:8189   */\n      pop\n      pop\n      pop\n      jump\t// out\n        /* \"#utility.yul\":8195:8428   */\n    tag_120:\n        /* \"#utility.yul\":8234:8237   */\n      0x00\n        /* \"#utility.yul\":8257:8281   */\n      tag_272\n        /* \"#utility.yul\":8275:8280   */\n      dup3\n        /* \"#utility.yul\":8257:8281   */\n      tag_208\n      jump\t// in\n    tag_272:\n        /* \"#utility.yul\":8248:8281   */\n      swap2\n      pop\n        /* \"#utility.yul\":8303:8369   */\n      0xffffffffffffffffffffffffffffffffffffffffffffffffffffffffffffffff\n        /* \"#utility.yul\":8296:8301   */\n      dup3\n        /* \"#utility.yul\":8293:8370   */\n      eq\n        /* \"#utility.yul\":8290:8292   */\n      iszero\n      tag_273\n      jumpi\n        /* \"#utility.yul\":8373:8391   */\n      tag_274\n      tag_275\n      jump\t// in\n    tag_274:\n        /* \"#utility.yul\":8290:8292   */\n    tag_273:\n        /* \"#utility.yul\":8420:8421   */\n      0x01\n        /* \"#utility.yul\":8413:8418   */\n      dup3\n        /* \"#utility.yul\":8409:8422   */\n      add\n        /* \"#utility.yul\":8402:8422   */\n      swap1\n      pop\n        /* \"#utility.yul\":8238:8428   */\n      swap2\n      swap1\n      pop\n      jump\t// out\n        /* \"#utility.yul\":8434:8614   */\n    tag_275:\n        /* \"#utility.yul\":8482:8559   */\n      0x4e487b7100000000000000000000000000000000000000000000000000000000\n        /* \"#utility.yul\":8479:8480   */\n      0x00\n        /* \"#utility.yul\":8472:8560   */\n      mstore\n        /* \"#utility.yul\":8579:8583   */\n      0x11\n        /* \"#utility.yul\":8576:8577   */\n      0x04\n        /* \"#utility.yul\":8569:8584   */\n      mstore\n        /* \"#utility.yul\":8603:8607   */\n      0x24\n        /* \"#utility.yul\":8600:8601   */\n      0x00\n        /* \"#utility.yul\":8593:8608   */\n      revert\n        /* \"#utility.yul\":8620:8800   */\n    tag_249:\n        /* \"#utility.yul\":8668:8745   */\n      0x4e487b7100000000000000000000000000000000000000000000000000000000\n        /* \"#utility.yul\":8665:8666   */\n      0x00\n        /* \"#utility.yul\":8658:8746   */\n      mstore\n        /* \"#utility.yul\":8765:8769   */\n      0x12\n        /* \"#utility.yul\":8762:8763   */\n      0x04\n        /* \"#utility.yul\":8755:8770   */\n      mstore\n        /* \"#utility.yul\":8789:8793   */\n      0x24\n        /* \"#utility.yul\":8786:8787   */\n      0x00\n        /* \"#utility.yul\":8779:8794   */\n      revert\n        /* \"#utility.yul\":8806:8986   */\n    tag_266:\n        /* \"#utility.yul\":8854:8931   */\n      0x4e487b7100000000000000000000000000000000000000000000000000000000\n        /* \"#utility.yul\":8851:8852   */\n      0x00\n        /* \"#utility.yul\":8844:8932   */\n      mstore\n        /* \"#utility.yul\":8951:8955   */\n      0x22\n        /* \"#utility.yul\":8948:8949   */\n      0x04\n        /* \"#utility.yul\":8941:8956   */\n      mstore\n        /* \"#utility.yul\":8975:8979   */\n      0x24\n        /* \"#utility.yul\":8972:8973   */\n      0x00\n        /* \"#utility.yul\":8965:8980   */\n      revert\n        /* \"#utility.yul\":8992:9172   */\n    tag_240:\n        /* \"#utility.yul\":9040:9117   */\n      0x4e487b7100000000000000000000000000000000000000000000000000000000\n        /* \"#utility.yul\":9037:9038   */\n      0x00\n        /* \"#utility.yul\":9030:9118   */\n      mstore\n        /* \"#utility.yul\":9137:9141   */\n      0x41\n        /* \"#utility.yul\":9134:9135   */\n      0x04\n        /* \"#utility.yul\":9127:9142   */\n      mstore\n        /* \"#utility.yul\":9161:9165   */\n      0x24\n        /* \"#utility.yul\":9158:9159   */\n      0x00\n        /* \"#utility.yul\":9151:9166   */\n      revert\n        /* \"#utility.yul\":9178:9280   */\n    tag_204:\n        /* \"#utility.yul\":9219:9225   */\n      0x00\n        /* \"#utility.yul\":9270:9272   */\n      0x1f\n        /* \"#utility.yul\":9266:9273   */\n      not\n        /* \"#utility.yul\":9261:9263   */\n      0x1f\n        /* \"#utility.yul\":9254:9259   */\n      dup4\n        /* \"#utility.yul\":9250:9264   */\n      add\n        /* \"#utility.yul\":9246:9274   */\n      and\n        /* \"#utility.yul\":9236:9274   */\n      swap1\n      pop\n        /* \"#utility.yul\":9226:9280   */\n      swap2\n      swap1\n      pop\n      jump\t// out\n        /* \"#utility.yul\":9286:9408   */\n    tag_166:\n        /* \"#utility.yul\":9359:9383   */\n      tag_282\n        /* \"#utility.yul\":9377:9382   */\n      dup2\n        /* \"#utility.yul\":9359:9383   */\n      tag_190\n      jump\t// in\n    tag_282:\n        /* \"#utility.yul\":9352:9357   */\n      dup2\n        /* \"#utility.yul\":9349:9384   */\n      eq\n        /* \"#utility.yul\":9339:9341   */\n      tag_283\n      jumpi\n        /* \"#utility.yul\":9398:9399   */\n      0x00\n        /* \"#utility.yul\":9395:9396   */\n      dup1\n        /* \"#utility.yul\":9388:9400   */\n      revert\n        /* \"#utility.yul\":9339:9341   */\n    tag_283:\n        /* \"#utility.yul\":9329:9408   */\n      pop\n      jump\t// out\n        /* \"#utility.yul\":9414:9536   */\n    tag_174:\n        /* \"#utility.yul\":9487:9511   */\n      tag_285\n        /* \"#utility.yul\":9505:9510   */\n      dup2\n        /* \"#utility.yul\":9487:9511   */\n      tag_208\n      jump\t// in\n    tag_285:\n        /* \"#utility.yul\":9480:9485   */\n      dup2\n        /* \"#utility.yul\":9477:9512   */\n      eq\n        /* \"#utility.yul\":9467:9469   */\n      tag_286\n      jumpi\n        /* \"#utility.yul\":9526:9527   */\n      0x00\n        /* \"#utility.yul\":9523:9524   */\n      dup1\n        /* \"#utility.yul\":9516:9528   */\n      revert\n        /* \"#utility.yul\":9467:9469   */\n    tag_286:\n        /* \"#utility.yul\":9457:9536   */\n      pop\n      jump\t// out\n\n    auxdata: 0xa2646970667358221220f9e4543fad91f7208cf54d3bdfa36bb25822f420525ce4311b12d5f318a3935364736f6c63430008040033\n}\n","bytecode":{"linkReferences":{},"object":"60806040523480156200001157600080fd5b50604051620017443803806200174483398181016040528101906200003791906200021a565b83600290805190602001906200004f929190620000ca565b50826003908051906020019062000068929190620000ca565b50806000806101000a81548173ffffffffffffffffffffffffffffffffffffffff021916908373ffffffffffffffffffffffffffffffffffffffff1602179055508160018190555060006007819055506000600581905550505050506200049a565b828054620000d8906200038b565b90600052602060002090601f016020900481019282620000fc576000855562000148565b82601f106200011757805160ff191683800117855562000148565b8280016001018555821562000148579182015b82811115620001475782518255916020019190600101906200012a565b5b5090506200015791906200015b565b5090565b5b80821115620001765760008160009055506001016200015c565b5090565b6000620001916200018b84620002e1565b620002b8565b905082815260208101848484011115620001aa57600080fd5b620001b784828562000355565b509392505050565b600081519050620001d08162000466565b92915050565b600082601f830112620001e857600080fd5b8151620001fa8482602086016200017a565b91505092915050565b600081519050620002148162000480565b92915050565b600080600080608085870312156200023157600080fd5b600085015167ffffffffffffffff8111156200024c57600080fd5b6200025a87828801620001d6565b945050602085015167ffffffffffffffff8111156200027857600080fd5b6200028687828801620001d6565b9350506040620002998782880162000203565b9250506060620002ac87828801620001bf565b91505092959194509250565b6000620002c4620002d7565b9050620002d28282620003c1565b919050565b6000604051905090565b600067ffffffffffffffff821115620002ff57620002fe62000426565b5b6200030a8262000455565b9050602081019050919050565b600062000324826200032b565b9050919050565b600073ffffffffffffffffffffffffffffffffffffffff82169050919050565b6000819050919050565b60005b838110156200037557808201518184015260208101905062000358565b8381111562000385576000848401525b50505050565b60006002820490506001821680620003a457607f821691505b60208210811415620003bb57620003ba620003f7565b5b50919050565b620003cc8262000455565b810181811067ffffffffffffffff82111715620003ee57620003ed62000426565b5b80604052505050565b7f4e487b7100000000000000000000000000000000000000000000000000000000600052602260045260246000fd5b7f4e487b7100000000000000000000000000000000000000000000000000000000600052604160045260246000fd5b6000601f19601f8301169050919050565b620004718162000317565b81146200047d57600080fd5b50565b6200048b816200034b565b81146200049757600080fd5b50565b61129a80620004aa6000396000f3fe6080604052600436106100dd5760003560e01c806381d12c581161007f578063ab67b50111610059578063ab67b501146102a7578063b1b16431146102d8578063d7bb99ba14610303578063d7d1bbdb1461030d576100dd565b806381d12c58146102125780638a9cfd5514610253578063937e09b11461027c576100dd565b80634a79d50c116100bb5780634a79d50c1461016657806353bf1de0146101915780636345cb08146101bc5780637284e416146101e7576100dd565b806303441006146100e25780630a144391146100fe578063481c6a751461013b575b600080fd5b6100fc60048036038101906100f79190610db7565b610336565b005b34801561010a57600080fd5b5061012560048036038101906101209190610d27565b6104ab565b6040516101329190610e61565b60405180910390f35b34801561014757600080fd5b506101506104cb565b60405161015d9190610e46565b60405180910390f35b34801561017257600080fd5b5061017b6104ef565b6040516101889190610e7c565b60405180910390f35b34801561019d57600080fd5b506101a661057d565b6040516101b39190610f75565b60405180910390f35b3480156101c857600080fd5b506101d161058a565b6040516101de9190610f75565b60405180910390f35b3480156101f357600080fd5b506101fc610590565b6040516102099190610e7c565b60405180910390f35b34801561021e57600080fd5b5061023960048036038101906102349190610db7565b61061e565b60405161024a959493929190610f1b565b60405180910390f35b34801561025f57600080fd5b5061027a60048036038101906102759190610d50565b610719565b005b34801561028857600080fd5b50610291610887565b60405161029e9190610f75565b60405180910390f35b3480156102b357600080fd5b506102bc61088d565b6040516102cf9796959493929190610e9e565b60405180910390f35b3480156102e457600080fd5b506102ed6109f9565b6040516102fa9190610f75565b60405180910390f35b61030b6109ff565b005b34801561031957600080fd5b50610334600480360381019061032f9190610db7565b610a7f565b005b60008054906101000a900473ffffffffffffffffffffffffffffffffffffffff1673ffffffffffffffffffffffffffffffffffffffff163373ffffffffffffffffffffffffffffffffffffffff161461038e57600080fd5b6000600682815481106103ca577f4e487b7100000000000000000000000000000000000000000000000000000000600052603260045260246000fd5b906000526020600020906005020190508060020160149054906101000a900460ff16156103f657600080fd5b60026005546104059190611002565b8160030154101561041557600080fd5b60008160020160009054906101000a900473ffffffffffffffffffffffffffffffffffffffff1690508073ffffffffffffffffffffffffffffffffffffffff166108fc83600101549081150290604051600060405180830381858888f19350505050158015610488573d6000803e3d6000fd5b5060018260020160146101000a81548160ff021916908315150217905550505050565b60046020528060005260406000206000915054906101000a900460ff1681565b60008054906101000a900473ffffffffffffffffffffffffffffffffffffffff1681565b600280546104fc906110bd565b80601f0160208091040260200160405190810160405280929190818152602001828054610528906110bd565b80156105755780601f1061054a57610100808354040283529160200191610575565b820191906000526020600020905b81548152906001019060200180831161055857829003601f168201915b505050505081565b6000600680549050905090565b60055481565b6003805461059d906110bd565b80601f01602080910402602001604051908101604052809291908181526020018280546105c9906110bd565b80156106165780601f106105eb57610100808354040283529160200191610616565b820191906000526020600020905b8154815290600101906020018083116105f957829003601f168201915b505050505081565b6006818154811061062e57600080fd5b9060005260206000209060050201600091509050806000018054610651906110bd565b80601f016020809104026020016040519081016040528092919081815260200182805461067d906110bd565b80156106ca5780601f1061069f576101008083540402835291602001916106ca565b820191906000526020600020905b8154815290600101906020018083116106ad57829003601f168201915b5050505050908060010154908060020160009054906101000a900473ffffffffffffffffffffffffffffffffffffffff16908060020160149054906101000a900460ff16908060030154905085565b60008054906101000a900473ffffffffffffffffffffffffffffffffffffffff1673ffffffffffffffffffffffffffffffffffffffff163373ffffffffffffffffffffffffffffffffffffffff161461077157600080fd5b60066001816001815401808255809150500390600052602060002090505060006006600754815481106107cd577f4e487b7100000000000000000000000000000000000000000000000000000000600052603260045260246000fd5b90600052602060002090600502019050600760008154809291906107f090611120565b91905055508381600001908051906020019061080d929190610bf2565b50828160010181905550818160020160006101000a81548173ffffffffffffffffffffffffffffffffffffffff021916908373ffffffffffffffffffffffffffffffffffffffff16021790555060008160020160146101000a81548160ff0219169083151502179055506000816003018190555050505050565b60015481565b60608060008060008060006002600360008054906101000a900473ffffffffffffffffffffffffffffffffffffffff16600154476006805490506005548680546108d6906110bd565b80601f0160208091040260200160405190810160405280929190818152602001828054610902906110bd565b801561094f5780601f106109245761010080835404028352916020019161094f565b820191906000526020600020905b81548152906001019060200180831161093257829003601f168201915b50505050509650858054610962906110bd565b80601f016020809104026020016040519081016040528092919081815260200182805461098e906110bd565b80156109db5780601f106109b0576101008083540402835291602001916109db565b820191906000526020600020905b8154815290600101906020018083116109be57829003601f168201915b50505050509550965096509650965096509650965090919293949596565b60075481565b6001543411610a0d57600080fd5b6001600460003373ffffffffffffffffffffffffffffffffffffffff1673ffffffffffffffffffffffffffffffffffffffff16815260200190815260200160002060006101000a81548160ff02191690831515021790555060056000815480929190610a7890611120565b9190505550565b600460003373ffffffffffffffffffffffffffffffffffffffff1673ffffffffffffffffffffffffffffffffffffffff16815260200190815260200160002060009054906101000a900460ff16610ad557600080fd5b600060068281548110610b11577f4e487b7100000000000000000000000000000000000000000000000000000000600052603260045260246000fd5b906000526020600020906005020190508060040160003373ffffffffffffffffffffffffffffffffffffffff1673ffffffffffffffffffffffffffffffffffffffff16815260200190815260200160002060009054906101000a900460ff1615610b7a57600080fd5b60018160040160003373ffffffffffffffffffffffffffffffffffffffff1673ffffffffffffffffffffffffffffffffffffffff16815260200190815260200160002060006101000a81548160ff021916908315150217905550806003016000815480929190610be990611120565b91905055505050565b828054610bfe906110bd565b90600052602060002090601f016020900481019282610c205760008555610c67565b82601f10610c3957805160ff1916838001178555610c67565b82800160010185558215610c67579182015b82811115610c66578251825591602001919060010190610c4b565b5b509050610c749190610c78565b5090565b5b80821115610c91576000816000905550600101610c79565b5090565b6000610ca8610ca384610fb5565b610f90565b905082815260208101848484011115610cc057600080fd5b610ccb84828561107b565b509392505050565b600081359050610ce281611236565b92915050565b600082601f830112610cf957600080fd5b8135610d09848260208601610c95565b91505092915050565b600081359050610d218161124d565b92915050565b600060208284031215610d3957600080fd5b6000610d4784828501610cd3565b91505092915050565b600080600060608486031215610d6557600080fd5b600084013567ffffffffffffffff811115610d7f57600080fd5b610d8b86828701610ce8565b9350506020610d9c86828701610d12565b9250506040610dad86828701610cd3565b9150509250925092565b600060208284031215610dc957600080fd5b6000610dd784828501610d12565b91505092915050565b610de981611033565b82525050565b610df881611045565b82525050565b6000610e0982610fe6565b610e138185610ff1565b9350610e2381856020860161108a565b610e2c81611225565b840191505092915050565b610e4081611071565b82525050565b6000602082019050610e5b6000830184610de0565b92915050565b6000602082019050610e766000830184610def565b92915050565b60006020820190508181036000830152610e968184610dfe565b905092915050565b600060e0820190508181036000830152610eb8818a610dfe565b90508181036020830152610ecc8189610dfe565b9050610edb6040830188610de0565b610ee86060830187610e37565b610ef56080830186610e37565b610f0260a0830185610e37565b610f0f60c0830184610e37565b98975050505050505050565b600060a0820190508181036000830152610f358188610dfe565b9050610f446020830187610e37565b610f516040830186610de0565b610f5e6060830185610def565b610f6b6080830184610e37565b9695505050505050565b6000602082019050610f8a6000830184610e37565b92915050565b6000610f9a610fab565b9050610fa682826110ef565b919050565b6000604051905090565b600067ffffffffffffffff821115610fd057610fcf6111f6565b5b610fd982611225565b9050602081019050919050565b600081519050919050565b600082825260208201905092915050565b600061100d82611071565b915061101883611071565b92508261102857611027611198565b5b828204905092915050565b600061103e82611051565b9050919050565b60008115159050919050565b600073ffffffffffffffffffffffffffffffffffffffff82169050919050565b6000819050919050565b82818337600083830152505050565b60005b838110156110a857808201518184015260208101905061108d565b838111156110b7576000848401525b50505050565b600060028204905060018216806110d557607f821691505b602082108114156110e9576110e86111c7565b5b50919050565b6110f882611225565b810181811067ffffffffffffffff82111715611117576111166111f6565b5b80604052505050565b600061112b82611071565b91507fffffffffffffffffffffffffffffffffffffffffffffffffffffffffffffffff82141561115e5761115d611169565b5b600182019050919050565b7f4e487b7100000000000000000000000000000000000000000000000000000000600052601160045260246000fd5b7f4e487b7100000000000000000000000000000000000000000000000000000000600052601260045260246000fd5b7f4e487b7100000000000000000000000000000000000000000000000000000000600052602260045260246000fd5b7f4e487b7100000000000000000000000000000000000000000000000000000000600052604160045260246000fd5b6000601f19601f8301169050919050565b61123f81611033565b811461124a57600080fd5b50565b61125681611071565b811461126157600080fd5b5056fea2646970667358221220f9e4543fad91f7208cf54d3bdfa36bb25822f420525ce4311b12d5f318a3935364736f6c63430008040033","opcodes":"PUSH1 0x80 PUSH1 0x40 MSTORE CALLVALUE DUP1 ISZERO PUSH3 0x11 JUMPI PUSH1 0x0 DUP1 REVERT JUMPDEST POP PUSH1 0x40 MLOAD PUSH3 0x1744 CODESIZE SUB DUP1 PUSH3 0x1744 DUP4 CODECOPY DUP2 DUP2 ADD PUSH1 0x40 MSTORE DUP2 ADD SWAP1 PUSH3 0x37 SWAP2 SWAP1 PUSH3 0x21A JUMP JUMPDEST DUP4 PUSH1 0x2 SWAP1 DUP1 MLOAD SWAP1 PUSH1 0x20 ADD SWAP1 PUSH3 0x4F SWAP3 SWAP2 SWAP1 PUSH3 0xCA JUMP JUMPDEST POP DUP3 PUSH1 0x3 SWAP1 DUP1 MLOAD SWAP1 PUSH1 0x20 ADD SWAP1 PUSH3 0x68 SWAP3 SWAP2 SWAP1 PUSH3 0xCA JUMP JUMPDEST POP DUP1 PUSH1 0x0 DUP1 PUSH2 0x100 EXP DUP2 SLOAD DUP2 PUSH20 0xFFFFFFFFFFFFFFFFFFFFFFFFFFFFFFFFFFFFFFFF MUL NOT AND SWAP1 DUP4 PUSH20 0xFFFFFFFFFFFFFFFFFFFFFFFFFFFFFFFFFFFFFFFF AND MUL OR SWAP1 SSTORE POP DUP2 PUSH1 0x1 DUP2 SWAP1 SSTORE POP PUSH1 0x0 PUSH1 0x7 DUP2 SWAP1 SSTORE POP PUSH1 0x0 PUSH1 0x5 DUP2 SWAP1 SSTORE POP POP POP POP POP PUSH3 0x49A JUMP JUMPDEST DUP3 DUP1 SLOAD PUSH3 0xD8 SWAP1 PUSH3 0x38B JUMP JUMPDEST SWAP1 PUSH1 0x0 MSTORE PUSH1 0x20 PUSH1 0x0 KECCAK256 SWAP1 PUSH1 0x1F ADD PUSH1 0x20 SWAP1 DIV DUP2 ADD SWAP3 DUP3 PUSH3 0xFC JUMPI PUSH1 0x0 DUP6 SSTORE PUSH3 0x148 JUMP JUMPDEST DUP3 PUSH1 0x1F LT PUSH3 0x117 JUMPI DUP1 MLOAD PUSH1 0xFF NOT AND DUP4 DUP1 ADD OR DUP6 SSTORE PUSH3 0x148 JUMP JUMPDEST DUP3 DUP1 ADD PUSH1 0x1 ADD DUP6 SSTORE DUP3 ISZERO PUSH3 0x148 JUMPI SWAP2 DUP3 ADD JUMPDEST DUP3 DUP2 GT ISZERO PUSH3 0x147 JUMPI DUP3 MLOAD DUP3 SSTORE SWAP2 PUSH1 0x20 ADD SWAP2 SWAP1 PUSH1 0x1 ADD SWAP1 PUSH3 0x12A JUMP JUMPDEST JUMPDEST POP SWAP1 POP PUSH3 0x157 SWAP2 SWAP1 PUSH3 0x15B JUMP JUMPDEST POP SWAP1 JUMP JUMPDEST JUMPDEST DUP1 DUP3 GT ISZERO PUSH3 0x176 JUMPI PUSH1 0x0 DUP2 PUSH1 0x0 SWAP1 SSTORE POP PUSH1 0x1 ADD PUSH3 0x15C JUMP JUMPDEST POP SWAP1 JUMP JUMPDEST PUSH1 0x0 PUSH3 0x191 PUSH3 0x18B DUP5 PUSH3 0x2E1 JUMP JUMPDEST PUSH3 0x2B8 JUMP JUMPDEST SWAP1 POP DUP3 DUP2 MSTORE PUSH1 0x20 DUP2 ADD DUP5 DUP5 DUP5 ADD GT ISZERO PUSH3 0x1AA JUMPI PUSH1 0x0 DUP1 REVERT JUMPDEST PUSH3 0x1B7 DUP5 DUP3 DUP6 PUSH3 0x355 JUMP JUMPDEST POP SWAP4 SWAP3 POP POP POP JUMP JUMPDEST PUSH1 0x0 DUP2 MLOAD SWAP1 POP PUSH3 0x1D0 DUP2 PUSH3 0x466 JUMP JUMPDEST SWAP3 SWAP2 POP POP JUMP JUMPDEST PUSH1 0x0 DUP3 PUSH1 0x1F DUP4 ADD SLT PUSH3 0x1E8 JUMPI PUSH1 0x0 DUP1 REVERT JUMPDEST DUP2 MLOAD PUSH3 0x1FA DUP5 DUP3 PUSH1 0x20 DUP7 ADD PUSH3 0x17A JUMP JUMPDEST SWAP2 POP POP SWAP3 SWAP2 POP POP JUMP JUMPDEST PUSH1 0x0 DUP2 MLOAD SWAP1 POP PUSH3 0x214 DUP2 PUSH3 0x480 JUMP JUMPDEST SWAP3 SWAP2 POP POP JUMP JUMPDEST PUSH1 0x0 DUP1 PUSH1 0x0 DUP1 PUSH1 0x80 DUP6 DUP8 SUB SLT ISZERO PUSH3 0x231 JUMPI PUSH1 0x0 DUP1 REVERT JUMPDEST PUSH1 0x0 DUP6 ADD MLOAD PUSH8 0xFFFFFFFFFFFFFFFF DUP2 GT ISZERO PUSH3 0x24C JUMPI PUSH1 0x0 DUP1 REVERT JUMPDEST PUSH3 0x25A DUP8 DUP3 DUP9 ADD PUSH3 0x1D6 JUMP JUMPDEST SWAP5 POP POP PUSH1 0x20 DUP6 ADD MLOAD PUSH8 0xFFFFFFFFFFFFFFFF DUP2 GT ISZERO PUSH3 0x278 JUMPI PUSH1 0x0 DUP1 REVERT JUMPDEST PUSH3 0x286 DUP8 DUP3 DUP9 ADD PUSH3 0x1D6 JUMP JUMPDEST SWAP4 POP POP PUSH1 0x40 PUSH3 0x299 DUP8 DUP3 DUP9 ADD PUSH3 0x203 JUMP JUMPDEST SWAP3 POP POP PUSH1 0x60 PUSH3 0x2AC DUP8 DUP3 DUP9 ADD PUSH3 0x1BF JUMP JUMPDEST SWAP2 POP POP SWAP3 SWAP6 SWAP2 SWAP5 POP SWAP3 POP JUMP JUMPDEST PUSH1 0x0 PUSH3 0x2C4 PUSH3 0x2D7 JUMP JUMPDEST SWAP1 POP PUSH3 0x2D2 DUP3 DUP3 PUSH3 0x3C1 JUMP JUMPDEST SWAP2 SWAP1 POP JUMP JUMPDEST PUSH1 0x0 PUSH1 0x40 MLOAD SWAP1 POP SWAP1 JUMP JUMPDEST PUSH1 0x0 PUSH8 0xFFFFFFFFFFFFFFFF DUP3 GT ISZERO PUSH3 0x2FF JUMPI PUSH3 0x2FE PUSH3 0x426 JUMP JUMPDEST JUMPDEST PUSH3 0x30A DUP3 PUSH3 0x455 JUMP JUMPDEST SWAP1 POP PUSH1 0x20 DUP2 ADD SWAP1 POP SWAP2 SWAP1 POP JUMP JUMPDEST PUSH1 0x0 PUSH3 0x324 DUP3 PUSH3 0x32B JUMP JUMPDEST SWAP1 POP SWAP2 SWAP1 POP JUMP JUMPDEST PUSH1 0x0 PUSH20 0xFFFFFFFFFFFFFFFFFFFFFFFFFFFFFFFFFFFFFFFF DUP3 AND SWAP1 POP SWAP2 SWAP1 POP JUMP JUMPDEST PUSH1 0x0 DUP2 SWAP1 POP SWAP2 SWAP1 POP JUMP JUMPDEST PUSH1 0x0 JUMPDEST DUP4 DUP2 LT ISZERO PUSH3 0x375 JUMPI DUP1 DUP3 ADD MLOAD DUP2 DUP5 ADD MSTORE PUSH1 0x20 DUP2 ADD SWAP1 POP PUSH3 0x358 JUMP JUMPDEST DUP4 DUP2 GT ISZERO PUSH3 0x385 JUMPI PUSH1 0x0 DUP5 DUP5 ADD MSTORE JUMPDEST POP POP POP POP JUMP JUMPDEST PUSH1 0x0 PUSH1 0x2 DUP3 DIV SWAP1 POP PUSH1 0x1 DUP3 AND DUP1 PUSH3 0x3A4 JUMPI PUSH1 0x7F DUP3 AND SWAP2 POP JUMPDEST PUSH1 0x20 DUP3 LT DUP2 EQ ISZERO PUSH3 0x3BB JUMPI PUSH3 0x3BA PUSH3 0x3F7 JUMP JUMPDEST JUMPDEST POP SWAP2 SWAP1 POP JUMP JUMPDEST PUSH3 0x3CC DUP3 PUSH3 0x455 JUMP JUMPDEST DUP2 ADD DUP2 DUP2 LT PUSH8 0xFFFFFFFFFFFFFFFF DUP3 GT OR ISZERO PUSH3 0x3EE JUMPI PUSH3 0x3ED PUSH3 0x426 JUMP JUMPDEST JUMPDEST DUP1 PUSH1 0x40 MSTORE POP POP POP JUMP JUMPDEST PUSH32 0x4E487B7100000000000000000000000000000000000000000000000000000000 PUSH1 0x0 MSTORE PUSH1 0x22 PUSH1 0x4 MSTORE PUSH1 0x24 PUSH1 0x0 REVERT JUMPDEST PUSH32 0x4E487B7100000000000000000000000000000000000000000000000000000000 PUSH1 0x0 MSTORE PUSH1 0x41 PUSH1 0x4 MSTORE PUSH1 0x24 PUSH1 0x0 REVERT JUMPDEST PUSH1 0x0 PUSH1 0x1F NOT PUSH1 0x1F DUP4 ADD AND SWAP1 POP SWAP2 SWAP1 POP JUMP JUMPDEST PUSH3 0x471 DUP2 PUSH3 0x317 JUMP JUMPDEST DUP2 EQ PUSH3 0x47D JUMPI PUSH1 0x0 DUP1 REVERT JUMPDEST POP JUMP JUMPDEST PUSH3 0x48B DUP2 PUSH3 0x34B JUMP JUMPDEST DUP2 EQ PUSH3 0x497 JUMPI PUSH1 0x0 DUP1 REVERT JUMPDEST POP JUMP JUMPDEST PUSH2 0x129A DUP1 PUSH3 0x4AA PUSH1 0x0 CODECOPY PUSH1 0x0 RETURN INVALID PUSH1 0x80 PUSH1 0x40 MSTORE PUSH1 0x4 CALLDATASIZE LT PUSH2 0xDD JUMPI PUSH1 0x0 CALLDATALOAD PUSH1 0xE0 SHR DUP1 PUSH4 0x81D12C58 GT PUSH2 0x7F JUMPI DUP1 PUSH4 0xAB67B501 GT PUSH2 0x59 JUMPI DUP1 PUSH4 0xAB67B501 EQ PUSH2 0x2A7 JUMPI DUP1 PUSH4 0xB1B16431 EQ PUSH2 0x2D8 JUMPI DUP1 PUSH4 0xD7BB99BA EQ PUSH2 0x303 JUMPI DUP1 PUSH4 0xD7D1BBDB EQ PUSH2 0x30D JUMPI PUSH2 0xDD JUMP JUMPDEST DUP1 PUSH4 0x81D12C58 EQ PUSH2 0x212 JUMPI DUP1 PUSH4 0x8A9CFD55 EQ PUSH2 0x253 JUMPI DUP1 PUSH4 0x937E09B1 EQ PUSH2 0x27C JUMPI PUSH2 0xDD JUMP JUMPDEST DUP1 PUSH4 0x4A79D50C GT PUSH2 0xBB JUMPI DUP1 PUSH4 0x4A79D50C EQ PUSH2 0x166 JUMPI DUP1 PUSH4 0x53BF1DE0 EQ PUSH2 0x191 JUMPI DUP1 PUSH4 0x6345CB08 EQ PUSH2 0x1BC JUMPI DUP1 PUSH4 0x7284E416 EQ PUSH2 0x1E7 JUMPI PUSH2 0xDD JUMP JUMPDEST DUP1 PUSH4 0x3441006 EQ PUSH2 0xE2 JUMPI DUP1 PUSH4 0xA144391 EQ PUSH2 0xFE JUMPI DUP1 PUSH4 0x481C6A75 EQ PUSH2 0x13B JUMPI JUMPDEST PUSH1 0x0 DUP1 REVERT JUMPDEST PUSH2 0xFC PUSH1 0x4 DUP1 CALLDATASIZE SUB DUP2 ADD SWAP1 PUSH2 0xF7 SWAP2 SWAP1 PUSH2 0xDB7 JUMP JUMPDEST PUSH2 0x336 JUMP JUMPDEST STOP JUMPDEST CALLVALUE DUP1 ISZERO PUSH2 0x10A JUMPI PUSH1 0x0 DUP1 REVERT JUMPDEST POP PUSH2 0x125 PUSH1 0x4 DUP1 CALLDATASIZE SUB DUP2 ADD SWAP1 PUSH2 0x120 SWAP2 SWAP1 PUSH2 0xD27 JUMP JUMPDEST PUSH2 0x4AB JUMP JUMPDEST PUSH1 0x40 MLOAD PUSH2 0x132 SWAP2 SWAP1 PUSH2 0xE61 JUMP JUMPDEST PUSH1 0x40 MLOAD DUP1 SWAP2 SUB SWAP1 RETURN JUMPDEST CALLVALUE DUP1 ISZERO PUSH2 0x147 JUMPI PUSH1 0x0 DUP1 REVERT JUMPDEST POP PUSH2 0x150 PUSH2 0x4CB JUMP JUMPDEST PUSH1 0x40 MLOAD PUSH2 0x15D SWAP2 SWAP1 PUSH2 0xE46 JUMP JUMPDEST PUSH1 0x40 MLOAD DUP1 SWAP2 SUB SWAP1 RETURN JUMPDEST CALLVALUE DUP1 ISZERO PUSH2 0x172 JUMPI PUSH1 0x0 DUP1 REVERT JUMPDEST POP PUSH2 0x17B PUSH2 0x4EF JUMP JUMPDEST PUSH1 0x40 MLOAD PUSH2 0x188 SWAP2 SWAP1 PUSH2 0xE7C JUMP JUMPDEST PUSH1 0x40 MLOAD DUP1 SWAP2 SUB SWAP1 RETURN JUMPDEST CALLVALUE DUP1 ISZERO PUSH2 0x19D JUMPI PUSH1 0x0 DUP1 REVERT JUMPDEST POP PUSH2 0x1A6 PUSH2 0x57D JUMP JUMPDEST PUSH1 0x40 MLOAD PUSH2 0x1B3 SWAP2 SWAP1 PUSH2 0xF75 JUMP JUMPDEST PUSH1 0x40 MLOAD DUP1 SWAP2 SUB SWAP1 RETURN JUMPDEST CALLVALUE DUP1 ISZERO PUSH2 0x1C8 JUMPI PUSH1 0x0 DUP1 REVERT JUMPDEST POP PUSH2 0x1D1 PUSH2 0x58A JUMP JUMPDEST PUSH1 0x40 MLOAD PUSH2 0x1DE SWAP2 SWAP1 PUSH2 0xF75 JUMP JUMPDEST PUSH1 0x40 MLOAD DUP1 SWAP2 SUB SWAP1 RETURN JUMPDEST CALLVALUE DUP1 ISZERO PUSH2 0x1F3 JUMPI PUSH1 0x0 DUP1 REVERT JUMPDEST POP PUSH2 0x1FC PUSH2 0x590 JUMP JUMPDEST PUSH1 0x40 MLOAD PUSH2 0x209 SWAP2 SWAP1 PUSH2 0xE7C JUMP JUMPDEST PUSH1 0x40 MLOAD DUP1 SWAP2 SUB SWAP1 RETURN JUMPDEST CALLVALUE DUP1 ISZERO PUSH2 0x21E JUMPI PUSH1 0x0 DUP1 REVERT JUMPDEST POP PUSH2 0x239 PUSH1 0x4 DUP1 CALLDATASIZE SUB DUP2 ADD SWAP1 PUSH2 0x234 SWAP2 SWAP1 PUSH2 0xDB7 JUMP JUMPDEST PUSH2 0x61E JUMP JUMPDEST PUSH1 0x40 MLOAD PUSH2 0x24A SWAP6 SWAP5 SWAP4 SWAP3 SWAP2 SWAP1 PUSH2 0xF1B JUMP JUMPDEST PUSH1 0x40 MLOAD DUP1 SWAP2 SUB SWAP1 RETURN JUMPDEST CALLVALUE DUP1 ISZERO PUSH2 0x25F JUMPI PUSH1 0x0 DUP1 REVERT JUMPDEST POP PUSH2 0x27A PUSH1 0x4 DUP1 CALLDATASIZE SUB DUP2 ADD SWAP1 PUSH2 0x275 SWAP2 SWAP1 PUSH2 0xD50 JUMP JUMPDEST PUSH2 0x719 JUMP JUMPDEST STOP JUMPDEST CALLVALUE DUP1 ISZERO PUSH2 0x288 JUMPI PUSH1 0x0 DUP1 REVERT JUMPDEST POP PUSH2 0x291 PUSH2 0x887 JUMP JUMPDEST PUSH1 0x40 MLOAD PUSH2 0x29E SWAP2 SWAP1 PUSH2 0xF75 JUMP JUMPDEST PUSH1 0x40 MLOAD DUP1 SWAP2 SUB SWAP1 RETURN JUMPDEST CALLVALUE DUP1 ISZERO PUSH2 0x2B3 JUMPI PUSH1 0x0 DUP1 REVERT JUMPDEST POP PUSH2 0x2BC PUSH2 0x88D JUMP JUMPDEST PUSH1 0x40 MLOAD PUSH2 0x2CF SWAP8 SWAP7 SWAP6 SWAP5 SWAP4 SWAP3 SWAP2 SWAP1 PUSH2 0xE9E JUMP JUMPDEST PUSH1 0x40 MLOAD DUP1 SWAP2 SUB SWAP1 RETURN JUMPDEST CALLVALUE DUP1 ISZERO PUSH2 0x2E4 JUMPI PUSH1 0x0 DUP1 REVERT JUMPDEST POP PUSH2 0x2ED PUSH2 0x9F9 JUMP JUMPDEST PUSH1 0x40 MLOAD PUSH2 0x2FA SWAP2 SWAP1 PUSH2 0xF75 JUMP JUMPDEST PUSH1 0x40 MLOAD DUP1 SWAP2 SUB SWAP1 RETURN JUMPDEST PUSH2 0x30B PUSH2 0x9FF JUMP JUMPDEST STOP JUMPDEST CALLVALUE DUP1 ISZERO PUSH2 0x319 JUMPI PUSH1 0x0 DUP1 REVERT JUMPDEST POP PUSH2 0x334 PUSH1 0x4 DUP1 CALLDATASIZE SUB DUP2 ADD SWAP1 PUSH2 0x32F SWAP2 SWAP1 PUSH2 0xDB7 JUMP JUMPDEST PUSH2 0xA7F JUMP JUMPDEST STOP JUMPDEST PUSH1 0x0 DUP1 SLOAD SWAP1 PUSH2 0x100 EXP SWAP1 DIV PUSH20 0xFFFFFFFFFFFFFFFFFFFFFFFFFFFFFFFFFFFFFFFF AND PUSH20 0xFFFFFFFFFFFFFFFFFFFFFFFFFFFFFFFFFFFFFFFF AND CALLER PUSH20 0xFFFFFFFFFFFFFFFFFFFFFFFFFFFFFFFFFFFFFFFF AND EQ PUSH2 0x38E JUMPI PUSH1 0x0 DUP1 REVERT JUMPDEST PUSH1 0x0 PUSH1 0x6 DUP3 DUP2 SLOAD DUP2 LT PUSH2 0x3CA JUMPI PUSH32 0x4E487B7100000000000000000000000000000000000000000000000000000000 PUSH1 0x0 MSTORE PUSH1 0x32 PUSH1 0x4 MSTORE PUSH1 0x24 PUSH1 0x0 REVERT JUMPDEST SWAP1 PUSH1 0x0 MSTORE PUSH1 0x20 PUSH1 0x0 KECCAK256 SWAP1 PUSH1 0x5 MUL ADD SWAP1 POP DUP1 PUSH1 0x2 ADD PUSH1 0x14 SWAP1 SLOAD SWAP1 PUSH2 0x100 EXP SWAP1 DIV PUSH1 0xFF AND ISZERO PUSH2 0x3F6 JUMPI PUSH1 0x0 DUP1 REVERT JUMPDEST PUSH1 0x2 PUSH1 0x5 SLOAD PUSH2 0x405 SWAP2 SWAP1 PUSH2 0x1002 JUMP JUMPDEST DUP2 PUSH1 0x3 ADD SLOAD LT ISZERO PUSH2 0x415 JUMPI PUSH1 0x0 DUP1 REVERT JUMPDEST PUSH1 0x0 DUP2 PUSH1 0x2 ADD PUSH1 0x0 SWAP1 SLOAD SWAP1 PUSH2 0x100 EXP SWAP1 DIV PUSH20 0xFFFFFFFFFFFFFFFFFFFFFFFFFFFFFFFFFFFFFFFF AND SWAP1 POP DUP1 PUSH20 0xFFFFFFFFFFFFFFFFFFFFFFFFFFFFFFFFFFFFFFFF AND PUSH2 0x8FC DUP4 PUSH1 0x1 ADD SLOAD SWAP1 DUP2 ISZERO MUL SWAP1 PUSH1 0x40 MLOAD PUSH1 0x0 PUSH1 0x40 MLOAD DUP1 DUP4 SUB DUP2 DUP6 DUP9 DUP9 CALL SWAP4 POP POP POP POP ISZERO DUP1 ISZERO PUSH2 0x488 JUMPI RETURNDATASIZE PUSH1 0x0 DUP1 RETURNDATACOPY RETURNDATASIZE PUSH1 0x0 REVERT JUMPDEST POP PUSH1 0x1 DUP3 PUSH1 0x2 ADD PUSH1 0x14 PUSH2 0x100 EXP DUP2 SLOAD DUP2 PUSH1 0xFF MUL NOT AND SWAP1 DUP4 ISZERO ISZERO MUL OR SWAP1 SSTORE POP POP POP POP JUMP JUMPDEST PUSH1 0x4 PUSH1 0x20 MSTORE DUP1 PUSH1 0x0 MSTORE PUSH1 0x40 PUSH1 0x0 KECCAK256 PUSH1 0x0 SWAP2 POP SLOAD SWAP1 PUSH2 0x100 EXP SWAP1 DIV PUSH1 0xFF AND DUP2 JUMP JUMPDEST PUSH1 0x0 DUP1 SLOAD SWAP1 PUSH2 0x100 EXP SWAP1 DIV PUSH20 0xFFFFFFFFFFFFFFFFFFFFFFFFFFFFFFFFFFFFFFFF AND DUP2 JUMP JUMPDEST PUSH1 0x2 DUP1 SLOAD PUSH2 0x4FC SWAP1 PUSH2 0x10BD JUMP JUMPDEST DUP1 PUSH1 0x1F ADD PUSH1 0x20 DUP1 SWAP2 DIV MUL PUSH1 0x20 ADD PUSH1 0x40 MLOAD SWAP1 DUP2 ADD PUSH1 0x40 MSTORE DUP1 SWAP3 SWAP2 SWAP1 DUP2 DUP2 MSTORE PUSH1 0x20 ADD DUP3 DUP1 SLOAD PUSH2 0x528 SWAP1 PUSH2 0x10BD JUMP JUMPDEST DUP1 ISZERO PUSH2 0x575 JUMPI DUP1 PUSH1 0x1F LT PUSH2 0x54A JUMPI PUSH2 0x100 DUP1 DUP4 SLOAD DIV MUL DUP4 MSTORE SWAP2 PUSH1 0x20 ADD SWAP2 PUSH2 0x575 JUMP JUMPDEST DUP3 ADD SWAP2 SWAP1 PUSH1 0x0 MSTORE PUSH1 0x20 PUSH1 0x0 KECCAK256 SWAP1 JUMPDEST DUP2 SLOAD DUP2 MSTORE SWAP1 PUSH1 0x1 ADD SWAP1 PUSH1 0x20 ADD DUP1 DUP4 GT PUSH2 0x558 JUMPI DUP3 SWAP1 SUB PUSH1 0x1F AND DUP3 ADD SWAP2 JUMPDEST POP POP POP POP POP DUP2 JUMP JUMPDEST PUSH1 0x0 PUSH1 0x6 DUP1 SLOAD SWAP1 POP SWAP1 POP SWAP1 JUMP JUMPDEST PUSH1 0x5 SLOAD DUP2 JUMP JUMPDEST PUSH1 0x3 DUP1 SLOAD PUSH2 0x59D SWAP1 PUSH2 0x10BD JUMP JUMPDEST DUP1 PUSH1 0x1F ADD PUSH1 0x20 DUP1 SWAP2 DIV MUL PUSH1 0x20 ADD PUSH1 0x40 MLOAD SWAP1 DUP2 ADD PUSH1 0x40 MSTORE DUP1 SWAP3 SWAP2 SWAP1 DUP2 DUP2 MSTORE PUSH1 0x20 ADD DUP3 DUP1 SLOAD PUSH2 0x5C9 SWAP1 PUSH2 0x10BD JUMP JUMPDEST DUP1 ISZERO PUSH2 0x616 JUMPI DUP1 PUSH1 0x1F LT PUSH2 0x5EB JUMPI PUSH2 0x100 DUP1 DUP4 SLOAD DIV MUL DUP4 MSTORE SWAP2 PUSH1 0x20 ADD SWAP2 PUSH2 0x616 JUMP JUMPDEST DUP3 ADD SWAP2 SWAP1 PUSH1 0x0 MSTORE PUSH1 0x20 PUSH1 0x0 KECCAK256 SWAP1 JUMPDEST DUP2 SLOAD DUP2 MSTORE SWAP1 PUSH1 0x1 ADD SWAP1 PUSH1 0x20 ADD DUP1 DUP4 GT PUSH2 0x5F9 JUMPI DUP3 SWAP1 SUB PUSH1 0x1F AND DUP3 ADD SWAP2 JUMPDEST POP POP POP POP POP DUP2 JUMP JUMPDEST PUSH1 0x6 DUP2 DUP2 SLOAD DUP2 LT PUSH2 0x62E JUMPI PUSH1 0x0 DUP1 REVERT JUMPDEST SWAP1 PUSH1 0x0 MSTORE PUSH1 0x20 PUSH1 0x0 KECCAK256 SWAP1 PUSH1 0x5 MUL ADD PUSH1 0x0 SWAP2 POP SWAP1 POP DUP1 PUSH1 0x0 ADD DUP1 SLOAD PUSH2 0x651 SWAP1 PUSH2 0x10BD JUMP JUMPDEST DUP1 PUSH1 0x1F ADD PUSH1 0x20 DUP1 SWAP2 DIV MUL PUSH1 0x20 ADD PUSH1 0x40 MLOAD SWAP1 DUP2 ADD PUSH1 0x40 MSTORE DUP1 SWAP3 SWAP2 SWAP1 DUP2 DUP2 MSTORE PUSH1 0x20 ADD DUP3 DUP1 SLOAD PUSH2 0x67D SWAP1 PUSH2 0x10BD JUMP JUMPDEST DUP1 ISZERO PUSH2 0x6CA JUMPI DUP1 PUSH1 0x1F LT PUSH2 0x69F JUMPI PUSH2 0x100 DUP1 DUP4 SLOAD DIV MUL DUP4 MSTORE SWAP2 PUSH1 0x20 ADD SWAP2 PUSH2 0x6CA JUMP JUMPDEST DUP3 ADD SWAP2 SWAP1 PUSH1 0x0 MSTORE PUSH1 0x20 PUSH1 0x0 KECCAK256 SWAP1 JUMPDEST DUP2 SLOAD DUP2 MSTORE SWAP1 PUSH1 0x1 ADD SWAP1 PUSH1 0x20 ADD DUP1 DUP4 GT PUSH2 0x6AD JUMPI DUP3 SWAP1 SUB PUSH1 0x1F AND DUP3 ADD SWAP2 JUMPDEST POP POP POP POP POP SWAP1 DUP1 PUSH1 0x1 ADD SLOAD SWAP1 DUP1 PUSH1 0x2 ADD PUSH1 0x0 SWAP1 SLOAD SWAP1 PUSH2 0x100 EXP SWAP1 DIV PUSH20 0xFFFFFFFFFFFFFFFFFFFFFFFFFFFFFFFFFFFFFFFF AND SWAP1 DUP1 PUSH1 0x2 ADD PUSH1 0x14 SWAP1 SLOAD SWAP1 PUSH2 0x100 EXP SWAP1 DIV PUSH1 0xFF AND SWAP1 DUP1 PUSH1 0x3 ADD SLOAD SWAP1 POP DUP6 JUMP JUMPDEST PUSH1 0x0 DUP1 SLOAD SWAP1 PUSH2 0x100 EXP SWAP1 DIV PUSH20 0xFFFFFFFFFFFFFFFFFFFFFFFFFFFFFFFFFFFFFFFF AND PUSH20 0xFFFFFFFFFFFFFFFFFFFFFFFFFFFFFFFFFFFFFFFF AND CALLER PUSH20 0xFFFFFFFFFFFFFFFFFFFFFFFFFFFFFFFFFFFFFFFF AND EQ PUSH2 0x771 JUMPI PUSH1 0x0 DUP1 REVERT JUMPDEST PUSH1 0x6 PUSH1 0x1 DUP2 PUSH1 0x1 DUP2 SLOAD ADD DUP1 DUP3 SSTORE DUP1 SWAP2 POP POP SUB SWAP1 PUSH1 0x0 MSTORE PUSH1 0x20 PUSH1 0x0 KECCAK256 SWAP1 POP POP PUSH1 0x0 PUSH1 0x6 PUSH1 0x7 SLOAD DUP2 SLOAD DUP2 LT PUSH2 0x7CD JUMPI PUSH32 0x4E487B7100000000000000000000000000000000000000000000000000000000 PUSH1 0x0 MSTORE PUSH1 0x32 PUSH1 0x4 MSTORE PUSH1 0x24 PUSH1 0x0 REVERT JUMPDEST SWAP1 PUSH1 0x0 MSTORE PUSH1 0x20 PUSH1 0x0 KECCAK256 SWAP1 PUSH1 0x5 MUL ADD SWAP1 POP PUSH1 0x7 PUSH1 0x0 DUP2 SLOAD DUP1 SWAP3 SWAP2 SWAP1 PUSH2 0x7F0 SWAP1 PUSH2 0x1120 JUMP JUMPDEST SWAP2 SWAP1 POP SSTORE POP DUP4 DUP2 PUSH1 0x0 ADD SWAP1 DUP1 MLOAD SWAP1 PUSH1 0x20 ADD SWAP1 PUSH2 0x80D SWAP3 SWAP2 SWAP1 PUSH2 0xBF2 JUMP JUMPDEST POP DUP3 DUP2 PUSH1 0x1 ADD DUP2 SWAP1 SSTORE POP DUP2 DUP2 PUSH1 0x2 ADD PUSH1 0x0 PUSH2 0x100 EXP DUP2 SLOAD DUP2 PUSH20 0xFFFFFFFFFFFFFFFFFFFFFFFFFFFFFFFFFFFFFFFF MUL NOT AND SWAP1 DUP4 PUSH20 0xFFFFFFFFFFFFFFFFFFFFFFFFFFFFFFFFFFFFFFFF AND MUL OR SWAP1 SSTORE POP PUSH1 0x0 DUP2 PUSH1 0x2 ADD PUSH1 0x14 PUSH2 0x100 EXP DUP2 SLOAD DUP2 PUSH1 0xFF MUL NOT AND SWAP1 DUP4 ISZERO ISZERO MUL OR SWAP1 SSTORE POP PUSH1 0x0 DUP2 PUSH1 0x3 ADD DUP2 SWAP1 SSTORE POP POP POP POP POP JUMP JUMPDEST PUSH1 0x1 SLOAD DUP2 JUMP JUMPDEST PUSH1 0x60 DUP1 PUSH1 0x0 DUP1 PUSH1 0x0 DUP1 PUSH1 0x0 PUSH1 0x2 PUSH1 0x3 PUSH1 0x0 DUP1 SLOAD SWAP1 PUSH2 0x100 EXP SWAP1 DIV PUSH20 0xFFFFFFFFFFFFFFFFFFFFFFFFFFFFFFFFFFFFFFFF AND PUSH1 0x1 SLOAD SELFBALANCE PUSH1 0x6 DUP1 SLOAD SWAP1 POP PUSH1 0x5 SLOAD DUP7 DUP1 SLOAD PUSH2 0x8D6 SWAP1 PUSH2 0x10BD JUMP JUMPDEST DUP1 PUSH1 0x1F ADD PUSH1 0x20 DUP1 SWAP2 DIV MUL PUSH1 0x20 ADD PUSH1 0x40 MLOAD SWAP1 DUP2 ADD PUSH1 0x40 MSTORE DUP1 SWAP3 SWAP2 SWAP1 DUP2 DUP2 MSTORE PUSH1 0x20 ADD DUP3 DUP1 SLOAD PUSH2 0x902 SWAP1 PUSH2 0x10BD JUMP JUMPDEST DUP1 ISZERO PUSH2 0x94F JUMPI DUP1 PUSH1 0x1F LT PUSH2 0x924 JUMPI PUSH2 0x100 DUP1 DUP4 SLOAD DIV MUL DUP4 MSTORE SWAP2 PUSH1 0x20 ADD SWAP2 PUSH2 0x94F JUMP JUMPDEST DUP3 ADD SWAP2 SWAP1 PUSH1 0x0 MSTORE PUSH1 0x20 PUSH1 0x0 KECCAK256 SWAP1 JUMPDEST DUP2 SLOAD DUP2 MSTORE SWAP1 PUSH1 0x1 ADD SWAP1 PUSH1 0x20 ADD DUP1 DUP4 GT PUSH2 0x932 JUMPI DUP3 SWAP1 SUB PUSH1 0x1F AND DUP3 ADD SWAP2 JUMPDEST POP POP POP POP POP SWAP7 POP DUP6 DUP1 SLOAD PUSH2 0x962 SWAP1 PUSH2 0x10BD JUMP JUMPDEST DUP1 PUSH1 0x1F ADD PUSH1 0x20 DUP1 SWAP2 DIV MUL PUSH1 0x20 ADD PUSH1 0x40 MLOAD SWAP1 DUP2 ADD PUSH1 0x40 MSTORE DUP1 SWAP3 SWAP2 SWAP1 DUP2 DUP2 MSTORE PUSH1 0x20 ADD DUP3 DUP1 SLOAD PUSH2 0x98E SWAP1 PUSH2 0x10BD JUMP JUMPDEST DUP1 ISZERO PUSH2 0x9DB JUMPI DUP1 PUSH1 0x1F LT PUSH2 0x9B0 JUMPI PUSH2 0x100 DUP1 DUP4 SLOAD DIV MUL DUP4 MSTORE SWAP2 PUSH1 0x20 ADD SWAP2 PUSH2 0x9DB JUMP JUMPDEST DUP3 ADD SWAP2 SWAP1 PUSH1 0x0 MSTORE PUSH1 0x20 PUSH1 0x0 KECCAK256 SWAP1 JUMPDEST DUP2 SLOAD DUP2 MSTORE SWAP1 PUSH1 0x1 ADD SWAP1 PUSH1 0x20 ADD DUP1 DUP4 GT PUSH2 0x9BE JUMPI DUP3 SWAP1 SUB PUSH1 0x1F AND DUP3 ADD SWAP2 JUMPDEST POP POP POP POP POP SWAP6 POP SWAP7 POP SWAP7 POP SWAP7 POP SWAP7 POP SWAP7 POP SWAP7 POP SWAP7 POP SWAP1 SWAP2 SWAP3 SWAP4 SWAP5 SWAP6 SWAP7 JUMP JUMPDEST PUSH1 0x7 SLOAD DUP2 JUMP JUMPDEST PUSH1 0x1 SLOAD CALLVALUE GT PUSH2 0xA0D JUMPI PUSH1 0x0 DUP1 REVERT JUMPDEST PUSH1 0x1 PUSH1 0x4 PUSH1 0x0 CALLER PUSH20 0xFFFFFFFFFFFFFFFFFFFFFFFFFFFFFFFFFFFFFFFF AND PUSH20 0xFFFFFFFFFFFFFFFFFFFFFFFFFFFFFFFFFFFFFFFF AND DUP2 MSTORE PUSH1 0x20 ADD SWAP1 DUP2 MSTORE PUSH1 0x20 ADD PUSH1 0x0 KECCAK256 PUSH1 0x0 PUSH2 0x100 EXP DUP2 SLOAD DUP2 PUSH1 0xFF MUL NOT AND SWAP1 DUP4 ISZERO ISZERO MUL OR SWAP1 SSTORE POP PUSH1 0x5 PUSH1 0x0 DUP2 SLOAD DUP1 SWAP3 SWAP2 SWAP1 PUSH2 0xA78 SWAP1 PUSH2 0x1120 JUMP JUMPDEST SWAP2 SWAP1 POP SSTORE POP JUMP JUMPDEST PUSH1 0x4 PUSH1 0x0 CALLER PUSH20 0xFFFFFFFFFFFFFFFFFFFFFFFFFFFFFFFFFFFFFFFF AND PUSH20 0xFFFFFFFFFFFFFFFFFFFFFFFFFFFFFFFFFFFFFFFF AND DUP2 MSTORE PUSH1 0x20 ADD SWAP1 DUP2 MSTORE PUSH1 0x20 ADD PUSH1 0x0 KECCAK256 PUSH1 0x0 SWAP1 SLOAD SWAP1 PUSH2 0x100 EXP SWAP1 DIV PUSH1 0xFF AND PUSH2 0xAD5 JUMPI PUSH1 0x0 DUP1 REVERT JUMPDEST PUSH1 0x0 PUSH1 0x6 DUP3 DUP2 SLOAD DUP2 LT PUSH2 0xB11 JUMPI PUSH32 0x4E487B7100000000000000000000000000000000000000000000000000000000 PUSH1 0x0 MSTORE PUSH1 0x32 PUSH1 0x4 MSTORE PUSH1 0x24 PUSH1 0x0 REVERT JUMPDEST SWAP1 PUSH1 0x0 MSTORE PUSH1 0x20 PUSH1 0x0 KECCAK256 SWAP1 PUSH1 0x5 MUL ADD SWAP1 POP DUP1 PUSH1 0x4 ADD PUSH1 0x0 CALLER PUSH20 0xFFFFFFFFFFFFFFFFFFFFFFFFFFFFFFFFFFFFFFFF AND PUSH20 0xFFFFFFFFFFFFFFFFFFFFFFFFFFFFFFFFFFFFFFFF AND DUP2 MSTORE PUSH1 0x20 ADD SWAP1 DUP2 MSTORE PUSH1 0x20 ADD PUSH1 0x0 KECCAK256 PUSH1 0x0 SWAP1 SLOAD SWAP1 PUSH2 0x100 EXP SWAP1 DIV PUSH1 0xFF AND ISZERO PUSH2 0xB7A JUMPI PUSH1 0x0 DUP1 REVERT JUMPDEST PUSH1 0x1 DUP2 PUSH1 0x4 ADD PUSH1 0x0 CALLER PUSH20 0xFFFFFFFFFFFFFFFFFFFFFFFFFFFFFFFFFFFFFFFF AND PUSH20 0xFFFFFFFFFFFFFFFFFFFFFFFFFFFFFFFFFFFFFFFF AND DUP2 MSTORE PUSH1 0x20 ADD SWAP1 DUP2 MSTORE PUSH1 0x20 ADD PUSH1 0x0 KECCAK256 PUSH1 0x0 PUSH2 0x100 EXP DUP2 SLOAD DUP2 PUSH1 0xFF MUL NOT AND SWAP1 DUP4 ISZERO ISZERO MUL OR SWAP1 SSTORE POP DUP1 PUSH1 0x3 ADD PUSH1 0x0 DUP2 SLOAD DUP1 SWAP3 SWAP2 SWAP1 PUSH2 0xBE9 SWAP1 PUSH2 0x1120 JUMP JUMPDEST SWAP2 SWAP1 POP SSTORE POP POP POP JUMP JUMPDEST DUP3 DUP1 SLOAD PUSH2 0xBFE SWAP1 PUSH2 0x10BD JUMP JUMPDEST SWAP1 PUSH1 0x0 MSTORE PUSH1 0x20 PUSH1 0x0 KECCAK256 SWAP1 PUSH1 0x1F ADD PUSH1 0x20 SWAP1 DIV DUP2 ADD SWAP3 DUP3 PUSH2 0xC20 JUMPI PUSH1 0x0 DUP6 SSTORE PUSH2 0xC67 JUMP JUMPDEST DUP3 PUSH1 0x1F LT PUSH2 0xC39 JUMPI DUP1 MLOAD PUSH1 0xFF NOT AND DUP4 DUP1 ADD OR DUP6 SSTORE PUSH2 0xC67 JUMP JUMPDEST DUP3 DUP1 ADD PUSH1 0x1 ADD DUP6 SSTORE DUP3 ISZERO PUSH2 0xC67 JUMPI SWAP2 DUP3 ADD JUMPDEST DUP3 DUP2 GT ISZERO PUSH2 0xC66 JUMPI DUP3 MLOAD DUP3 SSTORE SWAP2 PUSH1 0x20 ADD SWAP2 SWAP1 PUSH1 0x1 ADD SWAP1 PUSH2 0xC4B JUMP JUMPDEST JUMPDEST POP SWAP1 POP PUSH2 0xC74 SWAP2 SWAP1 PUSH2 0xC78 JUMP JUMPDEST POP SWAP1 JUMP JUMPDEST JUMPDEST DUP1 DUP3 GT ISZERO PUSH2 0xC91 JUMPI PUSH1 0x0 DUP2 PUSH1 0x0 SWAP1 SSTORE POP PUSH1 0x1 ADD PUSH2 0xC79 JUMP JUMPDEST POP SWAP1 JUMP JUMPDEST PUSH1 0x0 PUSH2 0xCA8 PUSH2 0xCA3 DUP5 PUSH2 0xFB5 JUMP JUMPDEST PUSH2 0xF90 JUMP JUMPDEST SWAP1 POP DUP3 DUP2 MSTORE PUSH1 0x20 DUP2 ADD DUP5 DUP5 DUP5 ADD GT ISZERO PUSH2 0xCC0 JUMPI PUSH1 0x0 DUP1 REVERT JUMPDEST PUSH2 0xCCB DUP5 DUP3 DUP6 PUSH2 0x107B JUMP JUMPDEST POP SWAP4 SWAP3 POP POP POP JUMP JUMPDEST PUSH1 0x0 DUP2 CALLDATALOAD SWAP1 POP PUSH2 0xCE2 DUP2 PUSH2 0x1236 JUMP JUMPDEST SWAP3 SWAP2 POP POP JUMP JUMPDEST PUSH1 0x0 DUP3 PUSH1 0x1F DUP4 ADD SLT PUSH2 0xCF9 JUMPI PUSH1 0x0 DUP1 REVERT JUMPDEST DUP2 CALLDATALOAD PUSH2 0xD09 DUP5 DUP3 PUSH1 0x20 DUP7 ADD PUSH2 0xC95 JUMP JUMPDEST SWAP2 POP POP SWAP3 SWAP2 POP POP JUMP JUMPDEST PUSH1 0x0 DUP2 CALLDATALOAD SWAP1 POP PUSH2 0xD21 DUP2 PUSH2 0x124D JUMP JUMPDEST SWAP3 SWAP2 POP POP JUMP JUMPDEST PUSH1 0x0 PUSH1 0x20 DUP3 DUP5 SUB SLT ISZERO PUSH2 0xD39 JUMPI PUSH1 0x0 DUP1 REVERT JUMPDEST PUSH1 0x0 PUSH2 0xD47 DUP5 DUP3 DUP6 ADD PUSH2 0xCD3 JUMP JUMPDEST SWAP2 POP POP SWAP3 SWAP2 POP POP JUMP JUMPDEST PUSH1 0x0 DUP1 PUSH1 0x0 PUSH1 0x60 DUP5 DUP7 SUB SLT ISZERO PUSH2 0xD65 JUMPI PUSH1 0x0 DUP1 REVERT JUMPDEST PUSH1 0x0 DUP5 ADD CALLDATALOAD PUSH8 0xFFFFFFFFFFFFFFFF DUP2 GT ISZERO PUSH2 0xD7F JUMPI PUSH1 0x0 DUP1 REVERT JUMPDEST PUSH2 0xD8B DUP7 DUP3 DUP8 ADD PUSH2 0xCE8 JUMP JUMPDEST SWAP4 POP POP PUSH1 0x20 PUSH2 0xD9C DUP7 DUP3 DUP8 ADD PUSH2 0xD12 JUMP JUMPDEST SWAP3 POP POP PUSH1 0x40 PUSH2 0xDAD DUP7 DUP3 DUP8 ADD PUSH2 0xCD3 JUMP JUMPDEST SWAP2 POP POP SWAP3 POP SWAP3 POP SWAP3 JUMP JUMPDEST PUSH1 0x0 PUSH1 0x20 DUP3 DUP5 SUB SLT ISZERO PUSH2 0xDC9 JUMPI PUSH1 0x0 DUP1 REVERT JUMPDEST PUSH1 0x0 PUSH2 0xDD7 DUP5 DUP3 DUP6 ADD PUSH2 0xD12 JUMP JUMPDEST SWAP2 POP POP SWAP3 SWAP2 POP POP JUMP JUMPDEST PUSH2 0xDE9 DUP2 PUSH2 0x1033 JUMP JUMPDEST DUP3 MSTORE POP POP JUMP JUMPDEST PUSH2 0xDF8 DUP2 PUSH2 0x1045 JUMP JUMPDEST DUP3 MSTORE POP POP JUMP JUMPDEST PUSH1 0x0 PUSH2 0xE09 DUP3 PUSH2 0xFE6 JUMP JUMPDEST PUSH2 0xE13 DUP2 DUP6 PUSH2 0xFF1 JUMP JUMPDEST SWAP4 POP PUSH2 0xE23 DUP2 DUP6 PUSH1 0x20 DUP7 ADD PUSH2 0x108A JUMP JUMPDEST PUSH2 0xE2C DUP2 PUSH2 0x1225 JUMP JUMPDEST DUP5 ADD SWAP2 POP POP SWAP3 SWAP2 POP POP JUMP JUMPDEST PUSH2 0xE40 DUP2 PUSH2 0x1071 JUMP JUMPDEST DUP3 MSTORE POP POP JUMP JUMPDEST PUSH1 0x0 PUSH1 0x20 DUP3 ADD SWAP1 POP PUSH2 0xE5B PUSH1 0x0 DUP4 ADD DUP5 PUSH2 0xDE0 JUMP JUMPDEST SWAP3 SWAP2 POP POP JUMP JUMPDEST PUSH1 0x0 PUSH1 0x20 DUP3 ADD SWAP1 POP PUSH2 0xE76 PUSH1 0x0 DUP4 ADD DUP5 PUSH2 0xDEF JUMP JUMPDEST SWAP3 SWAP2 POP POP JUMP JUMPDEST PUSH1 0x0 PUSH1 0x20 DUP3 ADD SWAP1 POP DUP2 DUP2 SUB PUSH1 0x0 DUP4 ADD MSTORE PUSH2 0xE96 DUP2 DUP5 PUSH2 0xDFE JUMP JUMPDEST SWAP1 POP SWAP3 SWAP2 POP POP JUMP JUMPDEST PUSH1 0x0 PUSH1 0xE0 DUP3 ADD SWAP1 POP DUP2 DUP2 SUB PUSH1 0x0 DUP4 ADD MSTORE PUSH2 0xEB8 DUP2 DUP11 PUSH2 0xDFE JUMP JUMPDEST SWAP1 POP DUP2 DUP2 SUB PUSH1 0x20 DUP4 ADD MSTORE PUSH2 0xECC DUP2 DUP10 PUSH2 0xDFE JUMP JUMPDEST SWAP1 POP PUSH2 0xEDB PUSH1 0x40 DUP4 ADD DUP9 PUSH2 0xDE0 JUMP JUMPDEST PUSH2 0xEE8 PUSH1 0x60 DUP4 ADD DUP8 PUSH2 0xE37 JUMP JUMPDEST PUSH2 0xEF5 PUSH1 0x80 DUP4 ADD DUP7 PUSH2 0xE37 JUMP JUMPDEST PUSH2 0xF02 PUSH1 0xA0 DUP4 ADD DUP6 PUSH2 0xE37 JUMP JUMPDEST PUSH2 0xF0F PUSH1 0xC0 DUP4 ADD DUP5 PUSH2 0xE37 JUMP JUMPDEST SWAP9 SWAP8 POP POP POP POP POP POP POP POP JUMP JUMPDEST PUSH1 0x0 PUSH1 0xA0 DUP3 ADD SWAP1 POP DUP2 DUP2 SUB PUSH1 0x0 DUP4 ADD MSTORE PUSH2 0xF35 DUP2 DUP9 PUSH2 0xDFE JUMP JUMPDEST SWAP1 POP PUSH2 0xF44 PUSH1 0x20 DUP4 ADD DUP8 PUSH2 0xE37 JUMP JUMPDEST PUSH2 0xF51 PUSH1 0x40 DUP4 ADD DUP7 PUSH2 0xDE0 JUMP JUMPDEST PUSH2 0xF5E PUSH1 0x60 DUP4 ADD DUP6 PUSH2 0xDEF JUMP JUMPDEST PUSH2 0xF6B PUSH1 0x80 DUP4 ADD DUP5 PUSH2 0xE37 JUMP JUMPDEST SWAP7 SWAP6 POP POP POP POP POP POP JUMP JUMPDEST PUSH1 0x0 PUSH1 0x20 DUP3 ADD SWAP1 POP PUSH2 0xF8A PUSH1 0x0 DUP4 ADD DUP5 PUSH2 0xE37 JUMP JUMPDEST SWAP3 SWAP2 POP POP JUMP JUMPDEST PUSH1 0x0 PUSH2 0xF9A PUSH2 0xFAB JUMP JUMPDEST SWAP1 POP PUSH2 0xFA6 DUP3 DUP3 PUSH2 0x10EF JUMP JUMPDEST SWAP2 SWAP1 POP JUMP JUMPDEST PUSH1 0x0 PUSH1 0x40 MLOAD SWAP1 POP SWAP1 JUMP JUMPDEST PUSH1 0x0 PUSH8 0xFFFFFFFFFFFFFFFF DUP3 GT ISZERO PUSH2 0xFD0 JUMPI PUSH2 0xFCF PUSH2 0x11F6 JUMP JUMPDEST JUMPDEST PUSH2 0xFD9 DUP3 PUSH2 0x1225 JUMP JUMPDEST SWAP1 POP PUSH1 0x20 DUP2 ADD SWAP1 POP SWAP2 SWAP1 POP JUMP JUMPDEST PUSH1 0x0 DUP2 MLOAD SWAP1 POP SWAP2 SWAP1 POP JUMP JUMPDEST PUSH1 0x0 DUP3 DUP3 MSTORE PUSH1 0x20 DUP3 ADD SWAP1 POP SWAP3 SWAP2 POP POP JUMP JUMPDEST PUSH1 0x0 PUSH2 0x100D DUP3 PUSH2 0x1071 JUMP JUMPDEST SWAP2 POP PUSH2 0x1018 DUP4 PUSH2 0x1071 JUMP JUMPDEST SWAP3 POP DUP3 PUSH2 0x1028 JUMPI PUSH2 0x1027 PUSH2 0x1198 JUMP JUMPDEST JUMPDEST DUP3 DUP3 DIV SWAP1 POP SWAP3 SWAP2 POP POP JUMP JUMPDEST PUSH1 0x0 PUSH2 0x103E DUP3 PUSH2 0x1051 JUMP JUMPDEST SWAP1 POP SWAP2 SWAP1 POP JUMP JUMPDEST PUSH1 0x0 DUP2 ISZERO ISZERO SWAP1 POP SWAP2 SWAP1 POP JUMP JUMPDEST PUSH1 0x0 PUSH20 0xFFFFFFFFFFFFFFFFFFFFFFFFFFFFFFFFFFFFFFFF DUP3 AND SWAP1 POP SWAP2 SWAP1 POP JUMP JUMPDEST PUSH1 0x0 DUP2 SWAP1 POP SWAP2 SWAP1 POP JUMP JUMPDEST DUP3 DUP2 DUP4 CALLDATACOPY PUSH1 0x0 DUP4 DUP4 ADD MSTORE POP POP POP JUMP JUMPDEST PUSH1 0x0 JUMPDEST DUP4 DUP2 LT ISZERO PUSH2 0x10A8 JUMPI DUP1 DUP3 ADD MLOAD DUP2 DUP5 ADD MSTORE PUSH1 0x20 DUP2 ADD SWAP1 POP PUSH2 0x108D JUMP JUMPDEST DUP4 DUP2 GT ISZERO PUSH2 0x10B7 JUMPI PUSH1 0x0 DUP5 DUP5 ADD MSTORE JUMPDEST POP POP POP POP JUMP JUMPDEST PUSH1 0x0 PUSH1 0x2 DUP3 DIV SWAP1 POP PUSH1 0x1 DUP3 AND DUP1 PUSH2 0x10D5 JUMPI PUSH1 0x7F DUP3 AND SWAP2 POP JUMPDEST PUSH1 0x20 DUP3 LT DUP2 EQ ISZERO PUSH2 0x10E9 JUMPI PUSH2 0x10E8 PUSH2 0x11C7 JUMP JUMPDEST JUMPDEST POP SWAP2 SWAP1 POP JUMP JUMPDEST PUSH2 0x10F8 DUP3 PUSH2 0x1225 JUMP JUMPDEST DUP2 ADD DUP2 DUP2 LT PUSH8 0xFFFFFFFFFFFFFFFF DUP3 GT OR ISZERO PUSH2 0x1117 JUMPI PUSH2 0x1116 PUSH2 0x11F6 JUMP JUMPDEST JUMPDEST DUP1 PUSH1 0x40 MSTORE POP POP POP JUMP JUMPDEST PUSH1 0x0 PUSH2 0x112B DUP3 PUSH2 0x1071 JUMP JUMPDEST SWAP2 POP PUSH32 0xFFFFFFFFFFFFFFFFFFFFFFFFFFFFFFFFFFFFFFFFFFFFFFFFFFFFFFFFFFFFFFFF DUP3 EQ ISZERO PUSH2 0x115E JUMPI PUSH2 0x115D PUSH2 0x1169 JUMP JUMPDEST JUMPDEST PUSH1 0x1 DUP3 ADD SWAP1 POP SWAP2 SWAP1 POP JUMP JUMPDEST PUSH32 0x4E487B7100000000000000000000000000000000000000000000000000000000 PUSH1 0x0 MSTORE PUSH1 0x11 PUSH1 0x4 MSTORE PUSH1 0x24 PUSH1 0x0 REVERT JUMPDEST PUSH32 0x4E487B7100000000000000000000000000000000000000000000000000000000 PUSH1 0x0 MSTORE PUSH1 0x12 PUSH1 0x4 MSTORE PUSH1 0x24 PUSH1 0x0 REVERT JUMPDEST PUSH32 0x4E487B7100000000000000000000000000000000000000000000000000000000 PUSH1 0x0 MSTORE PUSH1 0x22 PUSH1 0x4 MSTORE PUSH1 0x24 PUSH1 0x0 REVERT JUMPDEST PUSH32 0x4E487B7100000000000000000000000000000000000000000000000000000000 PUSH1 0x0 MSTORE PUSH1 0x41 PUSH1 0x4 MSTORE PUSH1 0x24 PUSH1 0x0 REVERT JUMPDEST PUSH1 0x0 PUSH1 0x1F NOT PUSH1 0x1F DUP4 ADD AND SWAP1 POP SWAP2 SWAP1 POP JUMP JUMPDEST PUSH2 0x123F DUP2 PUSH2 0x1033 JUMP JUMPDEST DUP2 EQ PUSH2 0x124A JUMPI PUSH1 0x0 DUP1 REVERT JUMPDEST POP JUMP JUMPDEST PUSH2 0x1256 DUP2 PUSH2 0x1071 JUMP JUMPDEST DUP2 EQ PUSH2 0x1261 JUMPI PUSH1 0x0 DUP1 REVERT JUMPDEST POP JUMP INVALID LOG2 PUSH5 0x6970667358 0x22 SLT KECCAK256 0xF9 0xE4 SLOAD EXTCODEHASH 0xAD SWAP2 0xF7 KECCAK256 DUP13 CREATE2 0x4D EXTCODESIZE 0xDF LOG3 PUSH12 0xB25822F420525CE4311B12D5 RETURN XOR LOG3 SWAP4 MSTORE8 PUSH5 0x736F6C6343 STOP ADDMOD DIV STOP CALLER "},"gasEstimates":{"creation":{"codeDepositCost":"952400","executionCost":"infinite","totalCost":"infinite"},"external":{"approveRequest(uint256)":"infinite","approvers(address)":"1591","contribute()":"42924","createRequest(string,uint256,address)":"infinite","description()":"infinite","finalizeRequest(uint256)":"infinite","getCamapaignData()":"infinite","getRequestLength()":"1190","manager()":"1279","minimumContribution()":"1196","numApprovers()":"1196","numRequest()":"1173","requests(uint256)":"infinite","title()":"infinite"}},"methodIdentifiers":{"approveRequest(uint256)":"d7d1bbdb","approvers(address)":"0a144391","contribute()":"d7bb99ba","createRequest(string,uint256,address)":"8a9cfd55","description()":"7284e416","finalizeRequest(uint256)":"03441006","getCamapaignData()":"ab67b501","getRequestLength()":"53bf1de0","manager()":"481c6a75","minimumContribution()":"937e09b1","numApprovers()":"6345cb08","numRequest()":"b1b16431","requests(uint256)":"81d12c58","title()":"4a79d50c"}},"storageLayout":{"storage":[{"astId":83,"contract":"contract:Campaign","label":"manager","offset":0,"slot":"0","type":"t_address"},{"astId":85,"contract":"contract:Campaign","label":"minimumContribution","offset":0,"slot":"1","type":"t_uint256"},{"astId":87,"contract":"contract:Campaign","label":"title","offset":0,"slot":"2","type":"t_string_storage"},{"astId":89,"contract":"contract:Campaign","label":"description","offset":0,"slot":"3","type":"t_string_storage"},{"astId":93,"contract":"contract:Campaign","label":"approvers","offset":0,"slot":"4","type":"t_mapping(t_address,t_bool)"},{"astId":95,"contract":"contract:Campaign","label":"numApprovers","offset":0,"slot":"5","type":"t_uint256"},{"astId":99,"contract":"contract:Campaign","label":"requests","offset":0,"slot":"6","type":"t_array(t_struct(Request)81_storage)dyn_storage"},{"astId":101,"contract":"contract:Campaign","label":"numRequest","offset":0,"slot":"7","type":"t_uint256"}],"types":{"t_address":{"encoding":"inplace","label":"address","numberOfBytes":"20"},"t_array(t_struct(Request)81_storage)dyn_storage":{"base":"t_struct(Request)81_storage","encoding":"dynamic_array","label":"struct Campaign.Request[]","numberOfBytes":"32"},"t_bool":{"encoding":"inplace","label":"bool","numberOfBytes":"1"},"t_mapping(t_address,t_bool)":{"encoding":"mapping","key":"t_address","label":"mapping(address => bool)","numberOfBytes":"32","value":"t_bool"},"t_string_storage":{"encoding":"bytes","label":"string","numberOfBytes":"32"},"t_struct(Request)81_storage":{"encoding":"inplace","label":"struct Campaign.Request","members":[{"astId":68,"contract":"contract:Campaign","label":"description","offset":0,"slot":"0","type":"t_string_storage"},{"astId":70,"contract":"contract:Campaign","label":"value","offset":0,"slot":"1","type":"t_uint256"},{"astId":72,"contract":"contract:Campaign","label":"recipient","offset":0,"slot":"2","type":"t_address"},{"astId":74,"contract":"contract:Campaign","label":"complete","offset":20,"slot":"2","type":"t_bool"},{"astId":76,"contract":"contract:Campaign","label":"approvalCount","offset":0,"slot":"3","type":"t_uint256"},{"astId":80,"contract":"contract:Campaign","label":"approvals","offset":0,"slot":"4","type":"t_mapping(t_address,t_bool)"}],"numberOfBytes":"160"},"t_uint256":{"encoding":"inplace","label":"uint256","numberOfBytes":"32"}}},"userdoc":{"kind":"user","methods":{},"version":1}}